:020000040000FA
:201000000000042091AF0000B9AF0000BBAF0000BDAF0000BFAF0000C1AF00000000000050
:20102000000000000000000000000000C3AF0000C5AF000000000000C7AF0000C9AF0000DC
:2010400041D1000041C7000039630100CBAF0000CBAF0000CBAF0000DDCD0000CBAF000047
:2010600021260100CBAF0000CBAF000051D20000CBAF000051D10000CBAF0000CBAF000081
:201080005DF20000CBAF0000CBAF0000CBAF0000CBAF0000CBAF0000CBAF0000CBAF0000AB
:2010A000CBAF0000CBAF0000CBAF0000CBAF0000CBAF0000CBAF0000000000000000000054
:2010C000CBAF0000CBAF0000CBAF0000CBAF0000CBAF0000CBAF0000CBAF000041EA00008F
:2010E000CBAF0000CBAF0000CBAF00000000000000000000CBAF000000000000CBAF00008E
:201100000000000000000000000000000000000000000000000000000000000000000000CF
:201120000000000000000000000000000000000000000000000000000000000000000000AF
:2011400000000000000000000000000000000000000000000000000000000000000000008F
:2011600000000000000000000000000000000000000000000000000000000000000000006F
:2011800000000000000000000000000000000000000000000000000000000000000000004F
:2011A00000000000000000000000000000000000000000000000000000000000000000002F
:2011C00000000000000000000000000000000000000000000000000000000000000000000F
:2011E0000000000000000000000000000000000000000000000000000000000000000000EF
:2012000001F0FF01102A2BDB10F0070F08D010F8013B013A8B422DD010F0070F42B3F6D194
:20122000F0B441EA012141EA014122F007047FF000070023F0E80256083C85EA010586EA41
:20124000010685FA47F5A3FA87F586FA47F6A5FA87F68EB9EED1F0BC01F0FF0102F007023C
:2012600032B110F8013B013A83EA010313B1F8D10020704701387047002D06BF354603389F
:20128000073815F0010F07D1013015F4807F02BF013015F4C03F0130F0BC0138704700BF63
:2012A000F8B54568BDB11F46836804469BB1C3688BB181B17FB12668069B06EB860605EB1B
:2012C000860555F8145C012D08BF0225AB4205D001252846F8BD03252846F8BD02F0A6FFBD
:2012E00005460028F8D1069B022B28D0002B24DD069A9FED1D7A3B4607EB82002946E2684F
:201300000A44D2ED007AE3EC017A984237EE277A01F10401F3D117EE100A1AF0E9FA134B37
:2013200000221AF085F921F0004319460CA3D3E900231AF0A7FD0028CED10425CCE7E26827
:2013400092ED007AF7EE007A77EEC77A87ED017AC7ED007A37EE277ADDE700BFAFF3008007
:20136000FCA9F1D24D62503F000000000000F03F002956D02DE9F047D1F8008092B00C461F
:20138000B8F1000F30D0D1E90196331D4B4505462ED808EB0607A649384604221BF0B1F9CB
:2013A000002840D0731D994505D3A249052238461BF0A7F938B3A049384604221BF0A1F957
:2013C00038B34E4510D218F80630222B00F0F9802D2B31D0A3F13002092A2DD95B2B00F0E3
:2013E00004817B2B00F08280002012B0BDE8F087731D9945E5D38F49052208EB06001BF0A9
:2014000080F90028DDD10120E860A3680533A360EBE702230120EB606861A3680433A3605D
:20142000E3E7002070470423EB60A36801200433A36012B0BDE8F087731E002102AFA9EB5E
:2014400006069844019138464FF02E0C18F8012F452A15D82A2A15D9A2F12B031A2B11D84E
:20146000DFE803F04210423810424242424242424242421010101010101010101010420050
:20148000652A31D012AB0B44002601A9384603F8406C18F01BFADDF804A0BA4559EC108B46
:2014A000A2D085ED060B60A3D3E9002310EE100A49461AF0FBFC002800F08B806FF00043E8
:2014C0006B610823EB60A368AAEB07071F44A76001208AE780F800C001313F2900F101005C
:2014E000D0D0B142B2D1CDE70270F5E7E368B3F57A7FBFF479AF0133E36018F806307B2BAA
:201500007FF472AF0136A660204605F001FFD4E90123934280F0BD802268D25C7D2A00F0ED
:20152000DE800026013BA3603746B0463EE018604360D4E901230133934280F0B080A360AF
:20154000204605F0E5FE224606F1100106F10C0005F094FF002800F0A280204605F0D8FEE7
:2015600033693362C6F81080D4E90123934280F096802268D25C3A2A40F091800133A3601C
:20158000204605F0C5FE21463046FFF7F1FE002800F08580204605F0BBFED4E90123934284
:2015A0007DD22268D35C2C2B40F09180206906F083F83346064600286ED0002FB7D1074662
:2015C000B7E7224605F1100105F10C0005F056FF0BE71A4B0022404649461AF05DFC002899
:2015E00051D04FF000436B616BE7E368B3F57A7FBFF4FAAE0133E36018F806305B2B7FF42D
:20160000F3AE0136A660204605F082FED4E9012393423ED22268D25C5D2A53D0013B002687
:20162000A360374625E000BF0000C0FFFFFFDF41D4830300DC830300E48303000000E0C1C2
:2016400018604360A3680133A360204605F060FE21463046FFF78CFE03462046FBB105F0C7
:2016600057FED4E90123934219D22268D35C2C2B1AD1206906F020F83346064660B1002FDD
:20168000DED10746DEE7404649461AF039FC686117E7013BA360A7E6002F3FF4A5AE38466F
:2016A00006F0E2FB0020A0E65D2BF8D1E368013BE3607E602023C5E90273A3680133A36010
:2016C000012092E6E368013BE3600027F2E77D2BE5D1E368013BE3607E604023EBE7E36821
:2016E000013BE3600027F8E7D0B5194B186857EC106B05F0E1FF044670B10823C360C0E907
:20170000066711A3D3E90023304639461AF0CEFB20B16FF0004363612046D0BD0D4B00225D
:20172000304639461AF0B8FB20B14FF0004363612046D0BD304639461AF0E2FB60612046EA
:20174000D0BD00BFAFF300800000C0FFFFFFDF41B40000200000E0C1D0B5038804463BB183
:201760005C2B0DD188290FD082290DD00120D0BD80211D4809F0C4F85C2323800120D0BDB3
:20178000002303800320D0BD07F062FCE8B907F043FC02460B4652EA030116D010A7D7E991
:2017A0000067D90141EA5261D0018F4208BF86420FD3002908BFB0F57A7F0DD34FF47A725A
:2017C00000231AF035FC0146D3E708480EF096F9D2E74FF4F051CCE70121CAE7AFF30080E8
:2017E000E733750000000000701E0020F00000202DE9F04F2DED028B83B00646019106F099
:201800008BFC8146304610F029FF59493246484606F05CFC306A002840F08C80726A1AB141
:201820005449484606F052FC9FED4F0B5249484606F018FC06F064FCF36A002B80465EDD41
:201840000024DFF85CB1DFF85CA19FED4C8A274612E0002A3CD04A480DF022FF336B234400
:20186000986960BB2946404606F0CCFBF36A0137BB4204F11C0442DD06F04EFC336B1A5983
:201880000546234422B1594606F020FC336B23445A682AB15146284606F018FC336B23445C
:2018A0001A7A012A25D0022AD3D1DA683549284606F00CFC336B234498690028D2D01AF09E
:2018C00005F841EC100B3049284606F0CBFBC9E7D3ED057A67EE887AFDEEE77A17EE900AEF
:2018E00019F0F4FF41EC100B2849284606F0BAFBB4E71A7C2649284606F090FBAEE7254988
:201900004246484606F086FB484606F073FB019B1B680446BBB1184621461AF0E2FE20465E
:2019200017F014FB484603B0BDEC028BBDE8F04F06F09ABA19F0CAFF41EC100B16494846E5
:2019400006F090FB6AE71AF0D4FE013017F0F6FA019A034610600028DDD110480EF0DEF85B
:20196000DDE700BFAFF30080000000000000F03F9C8C0300A48C0300C48703000000C842DD
:20198000BC8C0300B88C030078960300B08C0300B48C03007C930300A08C0300DC8C030076
:2019A000A88C0300AC8C03002DE9F84F2DED028B91ED008ADDF830A0BAEE0E0AB4EEC08A58
:2019C000F1EE10FA0C46054616461F4610D4F3EE080AB4EEE08AF1EE10FA40F37F81F2EEE1
:2019E000040AB1EE040A09F065FF38EE408A10E0F2EE040AB1EE040A09F05CFF38EE008A50
:201A0000F3EE087AB4EEE78AF1EE10FA84ED008AE5DC84ED008AD6F800B0584619F068FF24
:201A2000DEA3D3E90023804689461AF02BFA002800F0E780022D00F05A81032D00F0B881B0
:201A4000012D00F02A82D4ED007ABAEE0E7AF4EEC77AF1EE10FA13DBB3EE087AF4EEC77A11
:201A6000F1EE10FA0CD8306819F042FFCBA3D3E90023804689461AF019FA002840F01381CC
:201A8000D7ED001A9FEDBA1AB7EE000A71EE800A31EEC00A09F028FF87ED000ADAF80040D7
:201AA000204619F025FFA6A3D3E9002306460F461AF0E8F9002840F08D80A3A3D3E9002355
:201AC000304639461AF0FCF9002800F0D981A0A3D3E900233046394619F0AAFD1AF058FA7D
:201AE0000446CAF800400D9B1C68204619F000FF99A3D3E9002306460F461AF0C3F9002856
:201B000040F09F8096A3D3E90023304639461AF0D7F9002800F099818DA3D3E900233046D8
:201B2000394619F085FD1AF033FA04460D9B1C60032D00F09D80DAF8000019F0D9FE80A3E4
:201B4000D3E9002304460D461AF0B0F970B37EA3D3E90023204629461AF09EF930B30D9B32
:201B6000186819F0C5FE7CA3D3E9002304460D461AF09CF9D0B17AA3D3E90023204629468D
:201B80001AF08AF990B1DFED7B0A9FED7B0A09F091FE9AED007A0D9B30EE470AD3ED007A3B
:201BA0000E9B70EE677AC3ED007A0FE00E9B9FED711AD3ED001AB6EE000A71EE800A31EED4
:201BC000C00A09F091FE0E9B83ED000ABDEC028BBDE8F88F5EA3D3E900233046394619F050
:201BE00029FD1AF0D5F9044619F082FE56A3D3E9002306460F461AF063F900283FF471AFBA
:201C000065E759A3D3E90023404649461AF058F9002800F02881022D00F08380032D00F02A
:201C2000F380012D7FF40FAFF2EE040AB1EE040A09F040FE07EE90BA37EEC00A86ED000A55
:201C400001E743A3D3E900233046394619F0F2FC1AF09EF9044619F04BFE41A3D3E90023EB
:201C600006460F461AF02CF900283FF45FAF53E7DAED001A9FED3E1ADFED400A9FED400A40
:201C800009F032FE0D9B8AED000AD3ED001A9FED381ADFED3C0A9FED3C0A09F025FE0D9B92
:201CA00083ED000A47E730A3D3E90023404649461AF0F2F800283FF4E3AEDFED340A9FED3F
:201CC000340A09F0F7FD94ED007AD6ED007A30EE470A70EE677AC7ED007ADFE69FED241A36
:201CE000F0EE481A09F000FE84ED000A93E6DFED290A9FED290A09F0DDFD07EE90BA77EE84
:201D0000807A17EE900AC6ED007A17EE90BA19F0EFFD15A3D3E900231AF0D2F800283FF4F3
:201D200092AEDFED1C0A9FED1C0A09F0C3FD07EE90BA37EEC00A86ED000A84E6AFF30080CF
:201D4000EC51B81E85EBE1BF8FC2F5285C8FE23F9A9999999999B93F8FC2F5285C8FD2BF6D
:201D600052B81E85EB51E03F713D0AD7A3104140CDCCCC3D0AD7233C0AD723BCE17A143F48
:201D8000295C0FBF5C8F023FE17A94BE9A9939C0F6285CC0000048430000C842A4703D0AC1
:201DA000D72340C00000D2420000BE42000061C35FED040A1FED040A09F07CFDD6ED007ACE
:201DC0001FED067A70EE277AF4EEC77AF1EE10FAC6ED007A00F38980D7ED007AF5EEC07AE8
:201DE000F1EE10FACCBF37EEC00A37EE800A87ED000A306819F07CFD43A3D3E900231AF06A
:201E00005FF800283FF41FAEDFED410A9FED410A09F050FDD6ED007A9FED3F7A77EEC07AEE
:201E2000F4EEC77AF1EE10FAC6ED007A50DCD7ED007AF5EEC07AF1EE10FACCBF37EEC00A7F
:201E400037EE800A87ED000AFDE501EE904A9FED331ADFED330A9FED330A09F045FD0D9B1C
:201E600083ED000A64E601EE90BA9FED2F1ADFED2F0A9FED2F0A09F037FD86ED000AE2E555
:201E800001EE904A9FED251ADFED2A0A9FED2A0A09F02AFD8AED000A25E6F2EE040AB1EEB5
:201EA000040A09F007FD07EE90BA77EE807A17EE900AC6ED007A17EE90BA19F019FD12A38A
:201EC000D3E9002319F0FCFF00283FF4BCADABE6DFED120A9FED190A09F0ECFCD4ED007A17
:201EE00030EE670A87ED000AADE5DFED0C0A9FED130A09F0DFFCD4ED007A30EE670A87EDA6
:201F0000000A76E7AFF30080713D0AD7A31041400000D2420000BE42000061430AD7233C7D
:201F20005C8F023FE17A94BECDCCCC3D1F850842B81E01C2E17A143F295C0FBF0AD723BCDE
:201F40002DE9F0432DED028BD0ED001A9FED581AB1EE048A83B071EE880A31EEC80A15461F
:201F60001C460E46DDE90C9807468DED001A09F0BBFC87ED000AD6ED001A9DED001AF2EED1
:201F8000048A71EEA80A31EEC80A09F0ADFC86ED000AD5ED001A9DED001A71EEA80A31EEE2
:201FA000C80A8DED011A09F09FFC85ED000AD4ED001A11EE900ACDED001A19F099FC3AA3E7
:201FC000D3E9002306460F4619F034FB19F0E0FF35A3D3E9002305463946304619F028FB3E
:201FE00019F0D6FF9DED011ADDED001A00EE905A00EE100A09F078FC84ED000AD9ED001AD2
:2020000011EE900ACDED001A19F072FC26A3D3E9002306460F4619F00DFB19F0B9FF22A3FC
:20202000D3E9002304463946304619F001FB19F0AFFF9DED011ADDED001A00EE904A00EE87
:20204000100A09F051FC89ED000AD8ED001A11EE900ACDED001A19F04BFC13A3D3E900236F
:2020600006460F4619F0E6FA19F092FF0EA3D3E9002304463946304619F0DAFA19F088FF00
:20208000DDED001A9DED011A00EE904A00EE100A09F02AFC88ED000A03B0BDEC028BBDE8BB
:2020A000F08300BFAFF300809A9999999999B93FCDCCCC3D0000000070B588B0064606F0FC
:2020C0002BF80446684610F0C9FA1D496A46204605F0FCFF1B4A1C49204605F0F7FF9FED0F
:2020E000160B1A49204605F0BDFF204605F082FF05460DF013FD306850B129461AF0F1FA14
:20210000284616F023FF204605F0AEFE08B070BD28461AF0EEFA013016F010FF30600028DF
:20212000EBD10B480DF0FAFC284616F00FFF204605F09AFEEAE700BF000000000000004058
:20214000B4980300C0980300D4980300DC980300DC8C0300000000002DE9F04FA3B01F4677
:2021600000231E93A44B19921B6807930446184688461AF0BEFA4FF0000A05464FF0000BBE
:20218000CDF874801D9B1A782B2A4CD039D80D2A32D8082A32D8002A3CD000230E931D9E88
:2021A0003378302B40F0B480737803F0DF03582B6CD10E9B01931EAB029700938F4A1FAB60
:2021C0001DA9204617F06EFC10F00707054605D0062F2AD1013600231D960E93199B002B77
:2021E00040F096850E9BDBB152460BF1004343EC102B23B0BDE8F08F202ACED101331D935A
:20220000C0E72D2AC9D101220E925A1C1D925B78002BC4D1199BCDF87480002B40F07685E8
:2022200052465B46E3E70022EEE71E9A3AB1352120A81AF00EFD1E99204617F0DBFE013F91
:20224000052F07D8DFE807F00E0B181D0E034FF0000BDA462807C1D54BF0004BBEE7DDE92E
:2022600020ABF7E7DDE920A31F9A23F4801302F2334243EA025BEDE7DFF884B14FF0000AAD
:20228000E8E76FF0004B4FF0FF3AE3E71D9B5A1C1D925B78302BF9D0002B9FD001234FF0B2
:2022A000000904931D9B0A93CDF824904F460A221D980678A6F13003D9B209292AD9079992
:2022C0002A461AF01EFA98B3002033463D4607900246652B01D0452B18D11DB9049B0343B1
:2022E00098D00025DDF8748008F101031D9398F801302B2B75D02D2B7BD04FF0000CA3F1FD
:202300003001092940F28280CDF8748000269DE00023C4E7082FD8BF099900F10100DABF01
:2023200002FB0133099302FB093901371D90BFE71D9B5A191D925B5D002F37D007903D4624
:20234000A3F13002092A12D90122C2E71D9B5A1C1D925B780130302BF8D0A3F13102082AD0
:2023600000F2DB841D9A079000200A920546303B00F1010214D00799114407912A4600EB8C
:20238000050E0A21724513D12A18082A05F1010505441CDC09990A2202FB013309930022F6
:2023A0001D9B591C1D915B781046C9E73846D2E7082A04DC099E4E4309960132E2E702F15A
:2023C000010CBCF1100FD8BF01FB09F9F5E7102DDCBF0A2202FB0939E1E7002307930122C8
:2023E0007CE74FF0000C08F102031D9398F8023085E74FF0010CF6E7C09A0300989A030098
:202400000000F07F1D9B591C1D915B78302BF9D0A3F1310108293FF679AFA3F1300E1D9B9D
:2024200008931D9B591C1D915B78A3F13006092E37D9089E891B082944F61F6602DC76456F
:20244000A8BF7646BCF1000F00D07642002D4FD1049901437FF4C2AE002A7FF4DBAE692B4A
:2024600027D024DC492B24D04E2B7FF4D3AE9E491DA81AF08DFA00283FF4CCAE1D9B1B7833
:20248000282B2DD1994920AA1DA81AF095FA052826D1219BDDF880A043F0FF4B4BF4E00B65
:2024A0009CE60A2101FB0E3EAEF1300EB9E76E2BDBE78F491DA81AF06BFA00283FF4AAAE90
:2024C0001D9B8C49013B1DA81D931AF061FA10B91D9B01331D93DFF82CB24FF0000A7DE693
:2024E000854801F031FA8DED040BDDE904AB75E6079B0998F31A002F08BF2F46102D089307
:20250000A846A8BF4FF0100819F0D0F9092D82468B4613DD794B03EBC80353E9122319F087
:202520003FFA824648468B4619F0C0F902460B465046594619F07EF882468B460F2D38DC43
:20254000089B002B3FF44AAE24DD162B0BDC6B4D05EBC305D5E9000152465B4619F020FACE
:2025600082468B463AE6089AC5F12503934220DB624CC5F10F0504EBC50152465B46D1E932
:20258000000119F00DFA089B5D1B04EBC504D4E90023E3E7089B16330BDB079B574A9E1BDF
:2025A00002EBC606D6E900235046594619F022FBD6E7089BA5EB08089844B8F1000F71DD43
:2025C00018F00F030AD04D4901EBC30152465B46D1E9000119F0E4F982468B4638F00F080F
:2025E0004DD0B8F59A7F22DD00252E46099507952223DFF810B123604FF0000A099B002BAE
:202600003FF4ECAD1E99204617F0F4FC0799204617F0F0FC3146204617F0ECFC099920460D
:2026200017F0E8FC2946204617F0E4FCD6E500234FEA2818504659469946B8F1010F21DCD2
:202640000BB182468B462E4BABF1547B03EBC90952465B46D9E9000119F0A2F9294B0A461D
:202660000B4029498B428246BED8A1F580118B4286BFDFF898B04FF0FF3A02F1547B0023BD
:20268000049381E018F0010F07D01D4B03EBC903D3E9002319F084F9012309F101094FEA6B
:2026A0006808CAE7EBD0C8F1000818F00F020AD0124B03EBC20350465946D3E9002319F05D
:2026C00099FA82468B465FEA2818D8D0B8F11F0F1EDD00252E460995079522234FF0000A6A
:2026E0004FF0000B236089E7529C0300AC9A03004A9C0300499D0300459D0300E8D00100F3
:20270000C0D001000000F07F0000A07CFFFFEF7F18F0100318BF6A23DFF8B4930493504667
:202720005946002318F0010F04D0D9E9002319F037F901235FEA680809F10809F2D10BB166
:2027400082468B46049BBBB1CBF30A53C3F16B03002B594610DD1F2B40F32881342BDEBFBF
:20276000203B4FF0FF3202FA03F34FF0000ACCBF4FF05C7B03EA010B00220023504659463F
:2027800019F076FB0028A4D1099B00930A992B463A46204617F09AFC099000283FF424AF8D
:2027A000079B9E1B089B002BB4BF334600231093089B002523EAE37318932E46099B2046EA
:2027C000596817F0D7FB079000283FF411AF099B1A69023203F10C0192000C3019F0E8FD95
:2027E0004BEC10AB20AA1FA92046CDE90AAB17F03DFF1E9000283FF4FBAE0121204617F000
:20280000AFFC064600283FF4F3AE1F9B0499002BABBF109A189A189FDDF84090ACBF03EBC8
:202820000209D71A209AA3EB01089044A34B08F1FF389845C2F1360280F2CC80A3EB08033A
:202840001F2BA2EB03024FF0010100F3B68001FA03F3119300230C9309EB0208049BC14538
:2028600017441F444B46A8BF4346BB42A8BF3B46002BC2BFA8EB0308FF1AA9EB0309109B86
:20288000002B17DD31461A46204617F025FD064600283FF4ADAE01461E9A204617F076FCD3
:2028A0000F9000283FF4A4AE1E99204617F0A2FB0F9B1E93B8F1000F00F39180089B002B26
:2028C00008DD189A0799204617F006FD079000283FF48EAE002F08DD07993A46204617F082
:2028E00055FD079000283FF483AEB9F1000F08DD31464A46204617F049FD064600283FF464
:2029000077AE079A1E99204617F0ACFD054600283FF46EAEC3680F930023C36031461AF0CE
:2029200049F9002865DA0F9B53EA0A0340F08780CBF31303002B40F082802BF000431B0D0C
:202940001B05B3F1D66F7AD96B6913B92B69012B75DD29460122204617F018FD3146054693
:202960001AF028F900286ADD0499554A5B46002900F0858002EA0B01B1F1D66F7FDCB1F1E6
:202980005C7F7FF7AAAE4F4A0023CDE916325046DDE91623594619F003F80B46034308BF3E
:2029A000222382468B4608BF23602BE64FF0FF3202FA03F303EA0A0ADEE6C8F17F4808F53A
:2029C0007F0808F57B4808F1E20801FA08F30C93119141E700230C93012311933CE71E990A
:2029E0004246204617F0D2FC1E9000287FF466AFFEE55F466ED10F9ACBF3130342B3324A01
:202A0000934228D1049B5046EBB12D4A3A40B2F1D46F4FF0FF3119D8120DC2F16B0301FAA5
:202A200003F3984217D1294B9F4202D101303FF4DFAD234B3B4003F5801B4FF0000A049B62
:202A4000002BA0D1DEE54FF0FF33EAE70B46E8E753EA0A0388D00C9BDBB13B42EFD00F9BFA
:202A6000049A50465946C3B119F070FE02460B46DDE90A0118F0DEFD82468B46DFE7134099
:202A8000A3F580136FEA135B6FEA0B5B4FF0FF3AD5E7119B13EA0A0FE0E719F057FE024622
:202AA0000B46DDE90A0118F0C3FD0022002382468B4619F0DDF90028C1D00EE602FCFFFFC6
:202AC0000000F07F00005039FFFF0F00FFFFEF7F98D00100314628461AF088F859EC108BCD
:202AE00010EE100A00224FF08043494619F0D4F900287CD00F9B002B4CD0954B0022CDE918
:202B00000C23DFF84C924FF00008924B3B401193119A914B9A4240F0B280DDE90A23DDE910
:202B20000C01A7F1547B4BEC10ABCDE91623CDE90C0117F01FFDDDE90C0153EC102B18F005
:202B40002FFF52465B4618F075FD0B468149834A1940914282465ED90B9B02F1547293424D
:202B600003D10A9B01333FF443ADDFF8FCB14FF0FF3A1E99204617F03DFA0799204617F021
:202B800039FA3146204617F035FA2946204617F031FA13E6BAF1000F1BD1CBF31303F3B9C9
:202BA0006B4B00224046494619F06CF9D0B9404649466B4B002218F0F3FE8046894609F1BC
:202BC0000043CDF868801B93DDE91A23CDE90C239BE7BAF1010F02D1002F3FF47EAD614B26
:202BE00000228CE7DFF878914FF00008E7E75C4B40464946002218F0D3FE0F9B8046894655
:202C000033B901F1004312901393DDE91223DDE7CDE91289F9E703F1547B049B002BA8D155
:202C20002BF00043119A1B0D1B059A42A1D14046494619F015FA18F085FE02460B4640461E
:202C4000494618F0F5FC0F9ACBF3130343EA0A0313438046894653D035A3D3E9002319F067
:202C600011F900287FF4CEAC33A3D3E900234046494619F025F900283FF47BAFC2E4049B7A
:202C800033B3119BB3F1D46F22D82DA3D3E900234046494619F000F9A0B14946404619F08C
:202CA00057F9012838BF012018F000FE0F9B8046894613BB01F1004314901593DDE91423F2
:202CC000CDE90C230D9B119A03F1D6639B1A0D93DDE90C019DED0A0BCDE90C0117F04AFCB8
:202CE000DDE90C0153EC102B18F05AFEDDE90A2318F0A0FC82468B468FE7CDE91489DDE76A
:202D000011A3D3E9002319F0BDF8B4E700230E93199A1D9B1360FFF765BA652B3FF45DAB45
:202D2000452B3FF45AAB0122FFF792BBAFF300809535A094FFFFDF3F35E5AF350000E03F2C
:202D40000000C0FFFFFFDF419535A094FFFFCF3F0000F03F0000F07F0000E07FFFFF9F7C76
:202D60000000E03F0000F0BFFFFFEF7F000000002DE9F04F2DED028B57EC106B95B0456A6B
:202D8000DDF880800591CDE90267044609920F9375B9102016F0D2F80246606220B9B24B14
:202DA000EA21B24816F03EFEC0E901550560C560636A196851B15A684A60012393408B60A5
:202DC000204617F017F9636A00221A603B1EB9BF23F0004303930023C8F80030DDF80C90CC
:202DE000A34BBCBF0122C8F8002033EA09031BD10F9A42F20F731360C9F31303334300F048
:202E00007A85219B63B99B4B24E09B4B00930833219A1360009815B0BDEC028BBDE8F08F58
:202E2000944B00930333F3E79DED027B002251EC170B00238DED0A7B19F01AF8804658B17C
:202E40000F9A01231360219B002B00F051858B481860431E0093DDE79DED0A0B12AA13A96B
:202E6000204617F003FCC9F30A558346002D7CD00B9BCDF84080C3F31303DDE90A6743F028
:202E80007F5747F44017A5F2FF357D4B00223046394618F0CDFB6EA3D3E9002318F080FDDB
:202EA0006DA3D3E9002318F0C5FB064628460F4618F00CFD6AA3D3E9002318F071FD024691
:202EC0000B463046394618F0B5FB06460F4619F017F80022824600233046394618F0D2FF60
:202EE00048B1504618F0F2FC32463B4618F0C0FF08B90AF1FF3ABAF1160F54D8614B03EB02
:202F0000CA03D3E90023DDE90A0118F0BBFF00284BD00AF1FF3A00230E93129B5D1B6B1E89
:202F2000049343BF0023C5F1010804934FF00008BAF1000F3BDB049BCDF834A05344049302
:202F400000230693059B092B69D8052BC4BF043B0593059BA3F10203CCBF00250125032BD9
:202F600069D8DFE803F02C4E4C5ADDE912531D4405F23243202BC1BFC3F1400305F2124033
:202F800009FA03F326FA00F0DABFC3F1200306FA03F0184318F08AFC01230646A1F1F8776B
:202FA000013D109371E70123B6E70E90B5E7CAF1000306930023A8EB0A080D93C2E7002352
:202FC0000893099B002B39DC4FF00109CDF804904B46CDF82490606A00224260042202F11F
:202FE00014069E4241682FD9204616F0C3FF009000284BD1244B02464FF4D571D1E6012309
:20300000DEE700230893099B0AEB030909F10103012B0193B8BF0123DDE70123F2E7012548
:203020000023059308954FF0FF390022CDF8049012230992CFE701230893F4E7DDF824909D
:20304000CDF804904B46C6E7013141605200C6E761436F63A787D23FB3C8608B288AC63F35
:20306000FB799F501344D33F779C0300539D03000000F07F4F9D0300469D0300019F030094
:203080000000F83FE8D00100CF9D0300636A009A1A60019B0E2B00F2AD80002D00F0AA80B5
:2030A000BAF1000F36DDC34A0AF00F0302EBC30393ED007B1AF4807F4FEA2A17B0EE478A86
:2030C000F0EE678A16D0BC4BDDE90A01D3E9082318F090FDCDE9020107F00F070325B64EF5
:2030E00057B9DDE9020153EC182B18F083FDCDE9020129E00225F2E7F90708D551EC180BEE
:20310000D6E9002318F04CFC41EC180B01357F100836E5E700F0A680CAF10006A54BA64FA2
:2031200006F00F0203EBC203D3E90023DDE90A0118F036FCCDE90201361100230225002E73
:2031400040F08580002BD2D10E9B002B00F08C80DDE90267994B00223046394618F092FEDA
:20316000002800F08180019B002B7DD0B9F1000F3CDD0AF1FF3307930022914B3046394696
:2031800018F00EFCCDE902010135CDF83090DDE90267284618F09AFB32463B4618F000FC72
:2031A000884B002218F046FAA1F15073CDE9020103930C9B002B5CD1834B0022304639464A
:2031C00018F036FADDE9022306460F4618F078FE002840F09682DDE90221304601F10043A9
:2031E000394618F04FFE002840F08882DDE90A23CDE90223139B002BC0F25881BAF10E0F9F
:2032000000F354816B4B03EBCA03D3E90089099B002B80F2E380019B002B00F3DF8040F043
:203220006D82694B00224046494618F0B9FBDDE9022318F03BFE019E3746002840F0438293
:20324000009D312305F8013B0AF1010A3FE2F20705D5D7E9002318F0A3FB013501237610E1
:2032600008376CE702256FE7019BCDF81CA00C938DE700990C980C9A4E4B9DED027B014447
:2032800002910899B0EE478AF0EE678A03EBC20353E90223002945D04C49002018F0AAFC07
:2032A00053EC182B18F0C4F9009D41EC180B3946304618F025FE0C9018F008FB02460B467A
:2032C0003046394618F0B4F90C9B303305F8013B53EC182B06460F4618F0D4FD002865D1A7
:2032E00032463B463549002018F0A2F953EC182B18F0C8FD002840F0B980029B9D423FF405
:2033000075AF2F4B51EC180B002218F049FB2C4B41EC180B00223046394618F041FB0646D3
:203320000F46C4E751EC170B18F03AFB029B009D0C9341EC180B3946304618F0E1FD11904C
:2033400018F0C4FA02460B463046394618F070F9119B303305F8013B029B9D4206460F4643
:203360004FF0000234D1194B51EC180B18F062F902460B463046394618F0A2FD002875D13D
:2033800053EC182B1149002018F052F902460B463046394618F076FD00283FF427AF0C9DFB
:2033A0006B1E0C9315F8013C302BF8D0DDF81CA04AE000BFE8D00100C0D001000000F03F85
:2033C0000000244000001C40000014400000E03FAF4B18F0E5FA06460F46ACE7DDE9026776
:2033E000009D42464B463046394618F003FC18F087FD029018F06AFA42464B4618F0D0FAA6
:2034000002460B463046394618F012F9029E019F303605F8016B009EAE1BB74202460B4603
:2034200037D118F007F942464B4606460F4618F047FDC8B942464B463046394618F018FDCA
:2034400010B1029BD9070FD42046594616F0D2FD00232B700F9B0AF101001860219B002BAE
:203460003FF4D8AC1D60D5E4CDF81CA02B461D4613F8012D392A08D1009A9A42F7D1079AB6
:2034800000990132079230220A701A7801321A708CE77F4B002218F083FA00220023064637
:2034A0000F4618F0E5FC00289BD0CDE7089A002A00F0C480059A012A00F3A880109A002ACE
:2034C00000F0A08003F23343069E4546049A01211A4420469844049216F042FE0746002D8C
:2034E0000BDD049B002B08DDAB42049AA8BF2B46A8EB0308ED1AD31A0493069BFBB1089BB9
:20350000002B00F09F80002E11DD39463246204616F0E2FE5A4601460746204616F036FE3E
:2035200059460790204616F065FD079B9B46069B9A1B04D05946204616F0CEFE8346012118
:20354000204616F00DFE0D9B002B06467CDD1A460146204616F0C0FE059B012B064676DD40
:2035600000230693336906EB8303186919F0D2FAC0F12000049B184410F01F0000F0868045
:20358000C0F12003042B7FDDC0F11C00049B0344804405440493B8F1000F05DD59464246B4
:2035A000204616F0F3FE8346049B002B05DD31461A46204616F0EAFE06460E9B002B69D0B5
:2035C0003146584619F0F6FA002863DA002359460A22204616F030FD089B0AF1FF3A834651
:2035E000002B00F08F81394600230A22204616F023FDB9F1000F074600F38E80059B022B72
:2036000050DC89E0129BC3F136035DE7019B5E1E069BB342BFBF069B0696F21A0D9BB6BFA5
:203620009B189E1B0D93019BB8BF0026002BB5BFA8EB0305019B0023454647E7069E089F48
:2036400045464CE7069A75E7059B012B18DC029BB3B9039BC3F31303A3B9039B23F000432D
:203660001B0D1B052BB1049B0133049308F10108012306930D9B002B7FF474AF012079E713
:203680000023F6E7029BF4E785D018461C307DE700002440019B002B38DC059B022B35DD31
:2036A000DDF80490B9F1000F0DD131464B460522204616F0C1FC01460646584619F07AFA04
:2036C00000283FF7BDAD099B009D6FEA030A4FF000083146204616F08DFC002F3FF4B4AE04
:2036E000B8F1000F05D0B84503D04146204616F081FC3946204616F07DFCA5E6002637466B
:20370000E1E70C9EDDF81CA0374699E5089BDDF80490002B00F0FD80002D05DD39462A4609
:20372000204616F033FE0746069B002B5CD07968204616F01FFC054628B9804B024640F2CE
:20374000EA21FFF72EBB3A690232920007F10C010C3018F02DFE01222946204616F016FE90
:20376000009B01330193009B4B440793029B03F00103B84606930746019B3146013B5846BD
:20378000029319F001F803463033049041465846089319F00FFA3A4681463146204616F056
:2037A00061FEC268089B054602BB0146584619F001FA089B024629462046CDE9083216F036
:2037C00019FC059B099A019D43EA0201069B0B43089B0DD1392B29D0B9F1000F01DD049BC0
:2037E0003133029A137074E73846B9E70122E2E7B9F1000F06DB059941EA0909069959EA8A
:20380000010120D1002AECDD594601222046019316F0BCFD3146834619F0CCF90028019B75
:2038200002DCDED1DA07DCD5392BD8D1029A392313702B461D46013B15F8012C392A50D014
:2038400001321A7045E7002A03DD392BEED00133C7E7019A079902F8013C8A422AD059469A
:2038600000230A22204616F0E7FBB84583464FF000034FF00A024146204607D116F0DCFBB6
:2038800080460746019B0133019375E716F0D4FB3946804600230A22204616F0CDFB07466B
:2038A000F0E7B9F1000F009ACCBF4D46012515444FF00008594601222046019316F066FDD5
:2038C0003146834619F076F90028B2DC02D1019BDB07AED42B461D4613F8012D302AFAD076
:2038E000F7E6009A9A42A5D10AF1010A312379E7134BFFF7AFBA219B002B7FF486AA114BA2
:20390000FFF7A8BAB9F1000F03DC059B022B3FF7C9AE009D3146584618F036FF00F130032A
:2039200005F8013B009AAA1A9145BADD594600230A22204616F080FB8346EBE7CF9D0300A4
:20394000009F0300469D03009FED010B704700BF000000000000F87F10B5054C237833B9BD
:20396000044B13B10448AFF300800123237010BD280E002000000000189F030008B5034B27
:203980001BB103490348AFF3008008BD000000002C0E0020189F0300A3F5803A704700BF01
:2039A000174B002B08BF134B9D46FFF7F5FF00218B460F461348144A121A18F021FD0E4BDD
:2039C000002B00D098470D4B002B00D098470020002104000D000D48002802D00C48AFF344
:2039E000008015F087FA2000290006F055FA15F06DFA00BF00000800000000000000000000
:203A000000000420E00500202445002000000000000000002DE9F04F0388B3F5AE7F89B006
:203A200004460D4600F0A4814CD840F23912934200F0E580B3F5A67F40F08780894B1B68AE
:203A4000012B71D1884E3368DFF82892DFF82882864F022B40F35681854F3A78002333602D
:203A6000002A55D0834A844980483B700BF018FE82480CF053F8824A824B83488349CDE9E2
:203A80000032834B834A11F00BFA0F2007F090FB814E3368042B40F312820F2007F0C2FB5F
:203AA0000023744A7449714833600BF0F9FD7B480CF034F87A4B1B78002B00F00B826A4E88
:203AC000376883E140F26F12934200F0748140F28712934240F06981724B0093724A734BF2
:203AE0007348294604F09AFB012840F2B6805E4E5F4B37681B7801373760002B00F063812C
:203B00005C4A5D4959480BF0CBFD6A480CF006F8694B54491B68009300230B60674A6848F3
:203B20004FF4807106F092FD664B1B78AB4200F08181654B1B78AB4200F05B814FF4A67351
:203B40002380012009B0BDE8F08F002B40F02D814B4A4C4B4D494C48434E5C4FCDE9003241
:203B60004B4B4C4A11F09CF959495A480BF098FD59495A4804F044FE59495A4804F040FEBF
:203B8000DFF8F0A0DFF8F090DFF820810DF11C0B5246494635480BF083FD31685248013146
:203BA0000BF07EFD404A5148152105F09BFB002319460222404605F04DFD4D49404606F02E
:203BC00001F9002358460793FEF776FA079B002BDED03221354806F0D1F80799059108469D
:203BE00018F087FD05990246304806F049F9414A40F239134FF000019184238000E0334F40
:203C00002A4B294A3B480097294604F007FB012823D9154E174A3368174914480133336036
:203C20000BF03EFD34480BF079FF344B1B78002BA6D0104A10490D480BF032FD30480BF007
:203C40006DFF1D4B1D4A1B68009300231C4833604FF4807106F0FAFC70E7002009B0BDE804
:203C6000F08F00BFC80E0020EC0E0020ECD10100BA3D0020E4D10100E8D101005CD3010081
:203C8000383F0020403F00202C3F0020343F0020303F00203C3F0020B00F002098D301005B
:203CA000CE050020653F0000B40F0020040F00209C0E0020E0D30100283F002021430000EE
:203CC000CC0E002011450020104500201D40000008000020B0D10100B4D1010088020020C8
:203CE000CCD1010064020020FCD101002CD2010044D20100440E00205CD20100BB3D002003
:203D000090D201004A46414638460BF0C9FC3168774801310BF0C4FC764A7748232105F0EE
:203D2000E1FA002319460322744805F093FC744B724819684FF0000A06F044F8514607A806
:203D4000CDF81CA011F0C4F9DDF81CB0BBF1000F00F0C980584618F0CCFC5946024667488B
:203D600006F08EF8674A4FF4AE73A2F824A02380654B00935F4A614B6248294604F04EFAC4
:203D800001287FF66AAF614E614F33683A7801333360002A3FF458AE5E4A5F495F480BF0A4
:203DA0007FFC5F480BF0BAFE57E600230320238009B0BDE8F08F5B48C368002B7CD00120C5
:203DC00009B0BDE8F08F079815F0C0F8DFF844A1DFF84491DFF84481022F524649464046C8
:203DE0004FF0000B3ADD4A4B1B78002B3FF490AE86E64D4D474A484948480BF051FC29680D
:203E00004A480BF04DFC4A494A4A4B4B28680093CDE90121494B4A4A4A4911F0DBF84A4BF0
:203E20004A4A1B6800934A4800234FF4807106F00DFC83E63C4E464806F050FC3368354A13
:203E4000354936480133042BC8BF012333600BF027FC31683F480BF023FC6AE60BF020FC06
:203E600031683D4801310BF01BFC224A2248232105F038FA002319460322204805F0EAFBB6
:203E80001F4B1E48196805F09DFF012107A8CDF81CB011F01DF9079F3FB3384618F029FC84
:203EA00039460246154805F0EBFF2C4A40F28713A2F824B023800FE606F02CFDE8E5013397
:203EC00018483360802106F01BFD40F26F132380012037E60F4A104910480BF0E1FB204862
:203EE0000BF01CFE14E63368B3E5376874E700BFE8D20100B40F002010D30100040F002012
:203F00001C000020700E0020653F0000EC0E0020BA3D0020E4D10100E8D10100ECD10100C4
:203F200034D30100F00E0020443F002094D40100383F0020403F0020303F00203C3F0020EF
:203F4000343F00202C3F0020283F002021430000CC0E00206CD40100B8D301009C0E0020C7
:203F600018D4010070B582B0002833D001A9044605F07AFF1E491F4AD1F8A8501E4906462C
:203F80001E480BF08DFB29461D480BF089FB284604F02CF8054610B31A4904F02FF8044689
:203FA00010B104F0CDF860B9284603F05DFF019A154831460BF074FB144B01221A7002B01A
:203FC00070BD204604F0B4F8114B003818BF01201870E9E70F480BF0A1FD02B070BD0E48A5
:203FE0000BF09CFD2046802105F0AEFE02B070BD040F0020E4D10100E8D10100ECD1010045
:20400000D4D4010018D5010028D50100BA3D0020CE050020C0D4010004D50100F8B138B5FC
:204020000446D0F8A8500F4A0F4910480BF038FBA2790F4829460BF033FBA379412B03D1D9
:204040000C4B01221A7038BD0749064A07480BF027FBA1790848BDE838400BF021BB0748AE
:204060000BF05CBDE4D10100E8D10100ECD1010030D50100BB3D002070D50100C0D4010005
:204080002DE9F8432DED028B0C9F9DF828E0002F22DDDDF82C8016469C4602EB8709BD00B9
:2040A00000EB810400299FED4F7A0CDD02463346F2EC017AD3ED006A67EEA67A944237EE75
:2040C000277A2B44F4D1FCEC017A043637EE877A4E45A8EC017AE5D1BEF1000F3CD0BEF177
:2040E000010F3ED0BEF1020F5ED0BEF1040F4DD0BEF1030F6ED10B9B73B3002F6CD09FED12
:204100003A8A03EB87071D46F3EC017AF4EE487AF1EE10FAC8BFB0EE678A9F42F4D1DFED8D
:20412000318A0B9CB4EC010A30EE480A14F0E8FABC4278EE808AF5D1B0EE680A14F01EFBBB
:2041400030EE088A95ED000A30EE480A14F0D8FAA5EC010ABD42F5D10020BDEC028BBDE881
:20416000F883002FF8DD0B9B9FED1E7A03EB8707F3EC017AF5EEC07AF1EE10FA98BFF0EEE5
:20418000477A9F4243ED017AF2D1E5E7002FE3DD0B9C04EB870794ED000A14F055FAA4ECC2
:2041A000010AA742F7D1D7E7002FD5DD0B9CB7EE008A04EB870794ED000AB1EE400A14F0D9
:2041C0009FFA30EE080AC8EE007AE4EC017AA742F1D1C1E70220C0E79FED020A14F0CEFA1B
:2041E0003846BAE700000000000080FF70B54568954284B013DC089A0C46016891420EDC3B
:2042000082687AB1C6686EB1007C0090CDE90131204633462946FFF733FF04B070BD0120D0
:2042200004B070BD032004B070BD00BFD0F804C0BCF1000F37D02DE9F043D0F8088083B0BF
:204240000446B8F1000F2AD0D0F80C90B9F1000F25D00668012E5EDDDCF8043093421AD1B0
:2042600006EB86060CF11803276903EB860696464FF0FF3501E053F814EC53F8180C7545FB
:20428000B8BF7546854203F11403B8BF0546B342F1D1AF4209DA012003B0BDE8F0830320BE
:2042A00003B0BDE8F08303207047009760464346FFF79CFF0028F3D12368022B1EDD09EB6F
:2042C000870501266368009706EB860003EB80003A464B464146FFF789FF0028E0D1002FC6
:2042E00007DD42464B4653F8041B42F8041B9D42F9D1236801365A1EB242E3DC03EB8303F4
:20430000606800979B00143B18443A464B464146FFF76CFFC4E7022003B0BDE8F08300BFA8
:204320002DE9F043DFF81C827A4E7B4D7B4F7C4CDFF8149294ED001AD8ED000AD6ED002AC9
:2043400095ED002AD7ED001A99ED000A91B00BF00DFAD8F80030246829683A683068D9F8D8
:2043600000C00B934FF0050805AB0C940D92002406220E910F900AA96A48CDF80080CDF8AB
:2043800028C0CDE90544CDE907440994FCF788FF414605A807F0DEFA0446214605A80BF0C2
:2043A00025FA614B1B6A9847604B1C60042C00F2AB80DFE804F030415B7503000F2006F036
:2043C00031FF022006F0F4FE594A5A495A485B4C0BF066F95A480BF0A1FB514A4F4B5949AA
:2043E0005948CDE90056FDF7ABFD22680A2A74DC56490B6802322260012B09D0544B554A5B
:204400001B680093544800234FF4807106F01EF911B0BDE8F0830F2006F004FF042006F06B
:20442000C7FE3E4B3E4A47494748CDE9005610F055FD464B1B68DFE70F2006F0F3FE002019
:2044400006F05EFE3A4A3B493B480BF029F943480BF064FB324B3B4A3B490097CDE9015653
:204460000120FDF7A1FA394B1B68C5E70F2006F0D9FE002006F044FE2D4A2E492E480BF026
:204480000FF937480BF04AFB254B2E4A2E490097CDE901560220FDF787FA2C4B1B68ABE72F
:2044A000062006F0BFFE002006F056FE082006F015FF1F4A1F4920480BF0F2F829480BF0FD
:2044C0002DFB174B1F4A20490097CDE901560320FDF76AFA1D4B1B688EE71C4D2B68012BD9
:2044E00002D1931C236093E7114A124912480BF0D7F81D480BF012FB01231C482B600BF0E8
:20450000FDFA2B68022276E719480BF007FB0F4B1B6871E7383F0020403F0020303F002038
:204520003C3F00203000002088020020443F0020E4D10100E8D10100ECD10100000F0020E6
:20454000D4D50100343F00202C3F0020C80E0020283F002021430000CC0E002098D501004A
:20456000ACD50100C0D501001CD601002000002058D6010000B585B00346002101AA44F28C
:204580000100CDE90111039300F004F805B05DF804FB00BF72B6094B1B68DB0700D500BE94
:2045A000BFF34F8F0649074BCA6802F4E0621343CB60BFF34F8F00BFFDE700BFF0ED00E030
:2045C00000ED00E00400FA050378052B02D0094B1B681847084BD3F88424D3F8803413F010
:2045E000FF0FF4D1054BD2B2052A08BF1846014B1B681847C81B00200070024078820300E0
:20460000014B02481B681847C81B00207C820300012803D0022809D020B17047054B0648F9
:204620001B681847034B05481B681847014B04481B681847C81B0020708203006C820300B8
:20464000748203002DE9F04F87B0002504460F4690469946029500E0013562680123566803
:204660002146002202A8B0470028F5D18DF80600049065B3824683460AE09DF806306668D7
:20468000023B7668B0479DF806309B445D451ED962680123566821460DF1060204A8B04709
:2046A00062680123566821460DF1070204A8B0479DF80730BB424FF00002214604A8DCD173
:2046C000D04508D00AF1010A5FFA8AFAD5E7052007B0BDE8F08F109A9DF80630136089F8E5
:2046E000003089F801706168023B4D6809F102022146A847002007B0BDE8F08FF0B505469E
:2047000083B03B4809F0C8FC044610B1204603B0F0BD384A3849394B14700C60482221460D
:2047200037481C6017F06CFE36482146482217F067FE002D54D095E80700334B83E807008D
:20474000002847D0002008F0F5F808B1852844D12E4D2B7A002B49D0013BDBB205F10C0269
:204760004FF0030E6E68274FDFF894C01EFB032E05F109046378EBB1A278611C1144013B86
:2047800051FA83F1224408E003F00F0307EBC30391421D60306858600CD012F8013B18066F
:2047A000F2D503F00F030CEBC30391421D6030685860F2D103347445DCD10B238DF8043089
:2047C0001248336801A99847044600289ED009F0A5FC9BE70E4A1A60B4E7FFF7CBFEB7E795
:2047E000094B0B4A5D601D721A60ABE76E68E4E7C9450000BD3D0020641C0020681C0020AB
:20480000D41B00201C1C0020C81B0020A8820300D94B000010B509F09BFD68B109F0A0FDD8
:20482000044648B9064808F099F8034628B1FFF7A1FE2346184610BD0823184610BD00BFF6
:204840006882030009F074BC0AF072BB4FF0804303E0D3F83824D10707D5D3F8382492079B
:20486000F7D5024B02481B6818477047C81B00208082030000B5054B83B082221B688DF850
:20488000042001A8984703B05DF804FBC81B00202DE9F043057A83B0002D5ED005F1FF3ED9
:2048A0005FFA8EF300F10C024FF0030E00F10901334FDFF8D4C01EFB032E0C46667800224B
:2048C000964204EB020319D094F8028013F9089013F80830B9F1000F0BDB03F00F0307EB98
:2048E000C3031B680132002BEAD0112003B0BDE8F08303F00F030CEBC303F2E70334A6459E
:20490000DCD100261E4FDFF880C0324602EB42020A445378EBB1002423460CE003F00F0364
:2049200007EBC303186045682D685D6055780134E3B29D420CD99578134413F905E05B5DE0
:20494000BEF1000FEADA03F00F030CEBC303E9E7057A0136F2B29542D8D80A4A13681BB1C7
:204960001A681368002BFBD1106043680B228DF804201B6801A9984703B0BDE8F08300BFBC
:204980001C1C0020641C0020D41B0020024B1878003818BF01207047BC3D0020030710B564
:2049A000044604D52046BDE810400AF059B909F071FE20460AF0ACF92046BDE810400AF0AB
:2049C0004FB900BF0AF092BB014B1868704700BF641C0020F0B40E4B1F688FB13E7A96B124
:2049E00000231C463A4602E0DCB2A6420BD9557A854203F1010302F10302F5D101B10C70FC
:204A00003846F0BC70473B681F68002FE6D1F7E7641C0020436811461B68184700F00F0341
:204A2000082B0AD802064CBF054A064A02EBC303186810B143681B6818471020704700BF88
:204A4000D41B00201C1C002038B5094B1C6864B1054602E023681C683CB1636829461B682F
:204A6000204698470628F5D038BD062038BD00BF641C002038B50D46044609F0DDFC18B16A
:204A8000054B1B78022B01D0082038BD29462046BDE8384009F0E0BCBD3D002038B50D4637
:204AA000044609F0C9FC18B1054B1B78022B01D0082038BD29462046BDE8384009F05EBD21
:204AC000BD3D0020F8B543689B6805460C4616461BB19847062800D0F8BDEEB92B7AA342D9
:204AE0001CD9093504EB44042C44677897B133463A469A420BD9A378A2190136D05CFFF7CD
:204B00004DFFF3B2BB4205D262789A42F3D800231B78FFDE0020F8BD0720F8BD7378FFDE43
:204B200070B54368DB6805460C4603B198472B7AA3421AD9093504EB44042C4466789EB1A3
:204B400000252B46324693420BD2A37862190135D05C0AF0CBFAEBB29E4205D962789342D4
:204B6000F3D300231B78FFDE70BD00235B78FFDE43681B6903B118471846704770B50A4B0B
:204B80001D687DB12E7A4EB100242146013400222846FFF797FFE1B2B142F7D32B681D6877
:204BA000002DEFD170BD00BF641C002070B5094B1D6875B12E7A46B100242146013428468B
:204BC000FFF7AEFFE1B2B142F8D32B681D68002DF0D170BD641C002070B503780446852B74
:204BE00000F2BF80DFE813F00002B201BE003A026602E300EA00BD00040117012A01BD0014
:204C0000BD00BD00BD003D01BD00BD00BD00BD00BD00BD00BD00BD00BD00BD00BD00BD0043
:204C2000BD00BD00BD00BD00BD00BD00BD00BD00BD00BD00BD00BD00BD00BD00BD00BD00A4
:204C4000BD00BD00BD00BD00BD00BD00BD00BD00BD00BD00BD00BD00BD00BD00BD00BD0084
:204C6000BD00BD00BD00BD00BD00BD00BD00BD00BD00BD00BD00BD00BD00BD00BD00BD0064
:204C8000BD00BD00BD00BD00BD00BD00BD00BD00BD00BD00BD00BD00BD00BD00BD00BD0044
:204CA000BD00BD00BD00BD00BD00BD00BD00BD00BD00BD00BD00BD00BD00BD00BD00BD0024
:204CC000BD00BD00BD00BD00BD00BD00BD00BD00BD00BD00BD00BD00BD00BD00BD00BD0004
:204CE000BD00BD00BD00BD005101860060011C02E301E3008C4B8D49D3E9000290478C4B89
:204D00001C684CB1894D636820461B682946984723681C68002CF6D1864C63680BB10D20B2
:204D20009847FFF743FF01F075FB834B1B68002B00F0FD810120814D09F0D8FA2A78931E04
:204D4000DBB2062B00F215827D49CB5C13B107F0D7FD2A78022A40F00C8209F043FB0123A9
:204D60002B7070BD754D2A78931EDBB2062B00F2CD817349CB5C13B107F0C2FD2A78022A2D
:204D800040F0C48109F02EFB6A4B5B6803222A700BB102209847664B1D6845B16B6828461B
:204DA0001B68214698472B681D68002DF6D15E4B2146D3E90002BDE87040104790F90230E9
:204DC0008278002BB4BF5F4B574B02F00F0203EBC203D3E90002214690470028C1D0A0786C
:204DE0000207BED00307BCD4BDE8704009F024BC504B5B680BB1082098474D4B1D68002DE9
:204E0000AFD06B6828461B68214698472B681D68002DF6D1A5E7474B5B680BB10920984758
:204E2000434B1D68002D9CD06B6828461B68214698472B681D68002DF6D192E73D4B5B68EC
:204E40000BB10A2098473A4B1D68002D89D06B6828461B68214698472B681D68002DF6D1E7
:204E60007FE7344B5B680BB10F209847304B1D68002D3FF476AF6B6828461B682146984731
:204E80002B681D68002DF6D16BE72C4C2378062B00F04F8103F0FD03052B7FF462AF09F010
:204EA000ABFA0223237070BD244DFFF77FFE0AF033F82A78931EDBB2062B31D82049CB5CB5
:204EC00013B107F01DFD2A78022A29D109F08AFA174B1C6800232B704CB11B4E636820467D
:204EE0001B683146984723681C68002CF6D10E4B1549D3E9000290470E4B5B680BB10E2085
:204F000098472B78023BDBB2062B3FF62AAF0C4AD35C002B3FF425AFBDE8704007F0F0BC57
:204F2000082AD5D1D2E700BF1C1C002084820300641C0020C81B0020681C0020BD3D00205F
:204F400060820300D41B0020888203009C4DFFF72DFE01F055FA2A78931EDBB2062B00F203
:204F6000D9809849CB5C002B00F0D480022A03D0082A01D009F040FA934B5B6802222A70CD
:204F80000BB101209847914B2146D3E9000290478F4B1D68002D3FF4E4AE6B6828461B6868
:204FA000214698472B681D68002DF6D170BD844D2B78032B00F0C68009F0DCF900283FF471
:204FC000D0AE2A78931EDBB2062B40F2EB80814807F068FC2A78022A01D0082A01D109F0E5
:204FE00001FA06232B7070BD754B1B78032B00F0A580082B00F0A280734B5B680BB100208D
:205000009847754B1D68002D3FF4ABAE6B6828461B68214698472B685D68002DF6D170BD30
:20502000674D2B78032B7FF49CAE09F0B1FF00283FF497AE2A78931EDBB2062B00F2BB80A7
:205040006049CB5C13B107F05BFC2A78022A40F0B28009F0C7F904232B7070BD584D2A784F
:20506000082A5CD0931EDBB2062B00F286805549CB5C002B00F08180022A00F0878005233F
:205080002B70514B5B680BB1032098474F4B2146D3E9000290474E4B1D68002D3FF461AE35
:2050A0006B6828461B68214698472B681D68002DF6D170BD444B5B680BB103209847434B0F
:2050C0004649D3E900029047414B1C684CB1434D636820461B682946984723681C68002CD2
:2050E000F6D1374D2B78062B1ED0082B0BD09A1ED2B2062A4DD833498A5C002A49D0022B32
:2051000001D009F079F902232B7070BD082A7FF43BAE37E62F4807F0C5FB2A7826E70223B9
:205120002B7009F073F9ACE707232B7070BD207A01E609F061F90823237070BD2848FFF7C5
:205140004BFD59E709F024FF00283FF435AF2A78931EDBB2062B2BD81A49CB5C13B107F013
:20516000CFFB2A78022A23D109F03CF904232B7022E7082A7FF4F3ADEFE5164807F092FBAF
:205180002B78022B02D0082B7FF479AF09F02AF975E7104807F086FB2B78022BB3D0082BD1
:2051A000B1D0AEE70749CB5C002B7FF414AF0EE7082ADBD1D8E7082A7FF44DAF49E700BFDF
:2051C000BD3D002060820300C81B00201C1C0020641C002044000020681C002090820300B8
:2051E0008C8203004360CA699A4205D38A6902600B67CB610020704701F1280202608B67DA
:2052000000207047F0B504680E7A002C00F07284A4F212347C2C00F2C1827C2C00F2BE8279
:20522000DFE814F074020003DE02CF02C7022A0307032303BC02BC02BC02BC02BC02BC02DF
:205240006702D702BC02BC02BC02BC02CC010F03E602BC02BC02BC02F401EE038C03BC02E0
:20526000BC02BC02BC02FF00CB034803BC02BC02BC02BC02BC02BC026402BC02BC02BC02C8
:20528000BC0219019B039303AC035703BC02BC02C3038403B40339035F03BC02BC0241031B
:2052A000DB015003ED00BC02BC023203DB00F503BD00BC03BC02BC02BC02BC02BC02BC025E
:2052C000BC02BC02BC02BC02BC02BC02BC02BC02BC02BC02BC02BC02BC02C900D303BC02CB
:2052E000BC02BC026703BC02BC02BC02BC02AC00BC02BC02BC02BC02AC00BC02BC02BC0246
:20530000BC02BC02BC027D00C002BC02BC02BC02BC02B800BC02BC02BC02BC02B80001248F
:205320000025002A00F0CD8307795755A3424FF00005057140F27C83171901343D70B04DD3
:205340000F7D2D682D78AF4200F0B0838F7DAF4209D10025A342057140F24D852546013478
:205360000AB107795755DFF8A0C2A64F9CF800503F780135EDB28CF800507BE1012500242E
:205380000AB1077917554024AB42047140F289836C1CC6E701240025002AE2D1E3E7012417
:2053A0000025002A40F031848D7D0571A34240F262830134FFE001250024002A00F03D8305
:2053C00007791755AB424FF00504047140F27E83274602EB050C6C1CFDE201250024002ABE
:2053E00040F011840624AB42047140F23F8301350C7D0471AB4240F291836C1CD4E7012598
:205400000024002A40F003840524AB42047140F228836C1C2425A342057140F27583651C48
:20542000E0E701240025002A00F0FA83077957554FF0000CA34280F804C040F29084651C65
:205440000027AB4202F804C0077140F2F383541901352770F3E001250024002A00F0EF8377
:2054600007791755AB424FF02404047140F2C183274605F1010C002463455755047140F272
:20548000A98325460CF101071024BB4202F80C50047140F29083254607F1010C01246345F2
:2054A000D555047140F2788325460CEB04070524BB4202F80C50047140F25D83254607F14D
:2054C000010C24246345D555047140F24A8325460CF101070124BB4202F80C50047140F2A2
:2054E0003683254607EB040C03246345D555047140F228830CF1010702F80C40BB4291F86A
:2055000016C080F804C040F218837C1C0425A34202F807C0057140F20B8302EB040C2F469D
:2055200001342425A3428CF80070057140F2FB822F46651C1755AB424FF00204047140F2B4
:205540009F82274602EB050C6C1C0225A3428CF80070057140F2DD822F46651C1755AB42E1
:205560004FF00504047140F27C82274602EB050C6C1C2425A3428CF80070057140F2C4823B
:205580002F46651C1755AB424FF00604047140F26D82571901353C700F7D0771AB4240F268
:2055A000BD826C1C5755A3428D7D057140F26382171901343D70124D2D6851E00127002479
:2055C000002A00F04082057915559F424FF00004047180F0F5827D1C39E101250024002A60
:2055E00040F017830224AB42047140F249826C1C0225A342057140F28C82651C04E700BFE7
:205600006C1C0020BE3D0020C03D002001240025002A00F09883077957559C424FF00205DB
:20562000057180F05883671C1555BB424C7E047140F2E48202EB070C7D1C8CF80040002467
:20564000AB42047140F221826C1C0AB107795755C64D91F814C02D682F78BC4500F01A826B
:20566000DFF810E3DFF810C36F788EF8007000258CF80050BD423FD3BD4F3D780135EDB239
:205680003D70AE4240F2CA810925A342057140F25583651C002A00F0128307791755AB4254
:2056A0004FF00404047140F2B682274602EB050C6C1C8CF800700F7AAD4D2D78AF4240F292
:2056C000AC8305EB450501F10907DFF8A0C217F805E080F804E03D449C42CCF8005080F0F3
:2056E0007E82671C002A7FF46EAFACE101240025ABE701250024CDE70725A342057140F24D
:205700009281651C002A7FF45BAE96E1002A00F0EB8204791470012B4FF00B04047140F22F
:20572000238302250127D455AB420F7D077140F25B8205F1010C022463455755047140F227
:20574000448225460CF101070224BB4202F80C50047140F22B82254607F1010C0224634508
:20576000D555047140F213820CF1010702F80C40BB4291F819C080F804C040F2F7817C1C9B
:205780000025A34202F807C0057140F2E581171901343D70764F00253D7072E700230360A8
:2057A0001846F0BD002A00F0F282057917460124C4E5002A00F0F28205794FF0010C002728
:2057C000CCE7002A00F0EC82057901274FF0000CBAE7002A00F0FF8207799446012468E793
:2057E000002A00F0D78207794FF0010C0025A2E75E4C002A00F0E682077924689446012584
:205800008CF8007024780F7DA74200F0B9818F7DA7427FF414AF0A249D42047180F0F582C5
:205820006C1C00E6002A00F0D28204790125002779E7002A00F0B08290F804C0012400277E
:205840009EE7002A00F0C182047901250027DFF81CC1D455DCF80040AB426778077140F235
:20586000A08102EB050C0135CAE7002A00F0B1820579174601248CE7002A00F084820479C5
:2058800001274FF0000C71E7002A00F0A7820779944601246DE6002A00F08E820479012759
:2058A0004FF0000C28E6002A00F0A18207799446012436E6002A00F00082144607792770AA
:2058C0000125BCE6002A00F08E820779944601243BE6002A00F07282057901274FF0000C37
:2058E000E5E5002A00F0608290F804C0012400270CE61E4C0125276800241AB190F804C0FE
:2059000002F804C03C780F7DA74200F0E9808F7DA7427FF438AD0224AB42047140F270824E
:205920002C460135002A7FF42CAD2CE5002A00F04782057901274FF0000CCBE5002A00F09A
:20594000BC8104799446012577E6002A00F01682057901274FF0000C96E5002A00F0458231
:2059600007794FF0010C002585E500BF6C1C0020BF3D0020BE3D0020C03D0020002A00F0F7
:20598000308205794FF0010C002787E5002A00F00F8205794FF0010C0027A5E5002A00F0B8
:2059A000F48105791746012404E6002A00F0218205794FF0010C002783E5002A00F0F681E1
:2059C00090F804C0012500243AE5002A00F0EA810779944601248CF80070C14FC14D3F6855
:2059E0002D7897F801C0AC4540F2148297F802C03D44A34215F80C5005716CD9651C7CE73A
:205A0000002A00F0D7810579012700240CE6002A00F0B681047917460125BCE540F2993368
:205A200003600120F0BD40F26D3303600120F0BD4FF4617303600120F0BD0524AB4204715F
:205A400044D96C1CC9E79F42027180F0B9807D1CA34C2468AB426778077140F2A280013512
:205A6000D0E640F2553303600120F0BD40F2573303600120F0BD40F2593303600120F0BDA9
:205A800040F2513303600120F0BD4FF44F7303600120F0BD0525A342057140F21781651C19
:205AA000DBE440F2833303600120F0BD0D6AA3422D7805713FF652AC40F2893303600120F2
:205AC000F0BDA3420271B3D9013438E440F26E3303600120F0BD40F2723303600120F0BDD8
:205AE0000324AB4204713FF61BAF40F2773303600120F0BD08240471002B7FF407AE40F2EB
:205B0000123303600120F0BD40F2563303600120F0BD40F2523303600120F0BD4FF456732F
:205B200003600120F0BD4FF4547303600120F0BD40F24F3303600120F0BD4FF453730360A8
:205B40000120F0BD40F24B3303600120F0BD40F24A3303600120F0BD40F2193303600120B4
:205B6000F0BD40F2493303600120F0BD4FF4467303600120F0BD4FF4527303600120F0BD33
:205B800002249D42047180F0F4806C1C40E540F2173303600120F0BD40F24533036001201F
:205BA000F0BD4FF44A7303600120F0BD40F2163303600120F0BD4FF4517303600120F0BD23
:205BC00040F2273303600120F0BD40F2153303600120F0BD40F2433303600120F0BD40F252
:205BE000263303600120F0BD4FF4457303600120F0BD40F2423303600120F0BD40F22E3384
:205C000003600120F0BD0779BCE40779CAE40779A4E407798EE440F2213303600120F0BD54
:205C2000A342027140F29B80013400259C420571C0F0938040F2353303600120F0BD24243B
:205C4000AB420471D5D96C1C00259C420571C1D2013410259C420571ADD2013401259C422A
:205C6000057199D22C4405259C42057183D2013424259C420571BFF474AF013401259C421F
:205C80000571BFF464AF2C4403259C420571BFF459AF01348D7D05719C42BFF44EAF0134A9
:205CA0000425A34205717FF643AF01342425A34205717FF638AF651C94E40125BFE40424DA
:205CC000AB420471A7D90F7A6C1CF5E440F2413303600120F0BD40F22D3303600120F0BD5E
:205CE0006C1C0020C03D00200B24012B04713BD902240D7D05719C42BFF476AF01340225C3
:205D0000A34205717FF661AF013402259C420571BFF44CAF01340225A34205717FF637AF33
:205D200001344D7E05719C42BFF420AF013400259C420571BFF410AF01342BE54FF448732A
:205D400003600120F0BD02259C420571C3D201344D7E05719C42BFF451AF651C6FE44FF4E4
:205D60004D7303600120F0BD40F2133303600120F0BD4FF44B7303600120F0BD012468E7E3
:205D80000125FFF735BB0124CBE7012413E40124FFF7D5BA0124B2E70124C8E70124BAE702
:205DA0000124B2E7012418E6012479E701243CE7012469E70124CBE701246BE7012452E714
:205DC00001245BE7246801251CE5012540E601248FE70124DEE4374601246DE40124FFF7CD
:205DE00019BB01243AE7012402E401242CE701245CE701243CE740F28E3303600120F0BD72
:205E00004FF45F7303600120F0BD40F2333303600120F0BD00231B78FFDE024A00231360FE
:205E20001B78FFDE6C1C002070B90B681A7B202A01D0062070471A4652F80E1F9961918837
:205E400092799A7799837047032070474360CA699A4210D38A6910B40260C8690C6FC01A45
:205E60001C441A44C86100380C6718BF01205DF8044B8A61704701F12802026000208B67C2
:205E8000704700BF2DE9F0470B7888B00D4606460E2B14D8DFE803F008180808130D28137B
:205EA00013181308080808000024204608B0BDE8F0874B78DA0930D15B09012B4CD00624A9
:205EC000204608B0BDE8F0870368002403F134022046C3E91E44C3E920445A671C845C622C
:205EE000DC6208B0BDE8F087027A8B78002A00F06581817A0930002900F05E81F17A415CDD
:205F00009942D1D01B061ED4EF7807F0FD03012BCAD0002F65D00324C7E713F0600FC3F36D
:205F2000411200F09180012AC9D18B78212BC6D1B1F80720072AC2D10168681C183100F0A8
:205F400073FA0446B1E7EC78002C00F09D80032C14BF03240024A8E78B780768202B00F0CC
:205F60009B80222BABD1B1F80730002BA7D1B1F8035097F820303D8405F0010203F001032F
:205F80009342154690D0C3691BB1C2F10301C9B29847002D88D1337A012B40F20B81737B5D
:205FA00006F10C04002B00F00381B37BE05C09F019F8337A012B40F2FD80737B012B40F2F3
:205FC000F780B37B23442C46587809F00BF807F13403C7E91E55C7E920557D62FD627B67E0
:205FE00063E73568012A05F10C0140F2DF80727B012A06F10C0340F2D7800691B27B7049D7
:2060000005911344AC6A93F80180002C60D1EA6FEB6AAC67C5E91F42002B00F0B480296B61
:206020001846002205F1240383E803004046EA6205A9FEF733FD0446F369002B3FF435AFC8
:2060400030460021984730E703F01F03012B7FF436AF8C78062C7FF432AF05A8039200F05E
:20606000D5FC03AA00920746EA78297930463B46FEF7E8FA05283FF418AF039A3946681C2A
:2060800000F0D2F9044610E7F369002B3FF40CAF30460121984708E7B1F80720072A7FF4B5
:2060A0000EAF3B73B1F80730DBB27B7300200E37CDE90573079000F08BFF002005A9FEF7B3
:2060C000D9FC0446002867D0002000F089FFECE6D5F88490686A4C4528BF4C4605F1340AE7
:2060E0002246514616F064F9E86FEA6AEF67A9EB04030AEB04010444C5E91D13C5F8804005
:20610000002A43D005F12C0797E8030005F12404002284E80300EA62002B3BD091461BE094
:20612000696F686A16F044F9D5E91D32A96AC5F880100B44521AC5E91D32F36913B100210C
:2061400030469847EB6A13B397E8030084E80300AB6FC5F82C90EBB1AA6A9342E0D2696F3C
:20616000686A1A4616F024F9D5E90932A96FE967521A0B44C5E9093253B1404605A9FEF798
:206180008DFC044658E700236B6255E700236B62002451E76B6AEFE70A4B049603A9039399
:2061A00000F020FC04468FE73B78FFDE7B78FFDE2B78FFDE6B78FFDE0B78FFDE5378FFDE6B
:2061C0004D5E0000295E000010B503681C8CE40784B015D50B46017A012916D9417B00F11A
:2061E0000C0481B1817B605C91060CBF0124002401A9CDE901320394FEF73CFC04B010BD22
:20620000082004B010BD0B78FFDE00235B78FFDE0368D3F880007047F0B50468238CDB0793
:2062200083B022D50546002016460F4600F0D0FEA26F42B9636AE3B11124002000F0D0FEDA
:20624000204603B0F0BD964228BF1646616F3246384616F0ADF8D4E91D239B1B3244C4E916
:206260001D23C4F880600024E7E70824204603B0F0BDC4E909762A7A012A12D9697B01296A
:2062800005F10C020FD9AB7B0849009113440C34587801946946FEF701FC041E08BF9224CE
:2062A000CBE75B78FFDE1B78FFDE00BFE5510000002070472DE9F04F4B6885B0CDE900024B
:2062C0000C46002B71D008F0B3F9E568019B9D4228BF1D468146002D7CD04FF0000A564625
:2062E000D3464FF00108D4E90113AB421F4628BF2F46E9B13A4609EB060016F059F8D4E996
:206300000223D21BDB1BC4E90223C4F804B0ED1B3E442AB3002B08BF4FF00008002DE2D1B3
:20632000009BC3F800905E60404605B0BDE8F08FABB120463B4650F8101B4A68D2F804A084
:2063400009EB0602D047D4E90223D21BDB1BC4E90223ED1B3E445AB14FF0010ADAE7E368A8
:20636000BAF1000F04D15BB99846002DBBD1D7E722681268126822604FF0010A002BF3D0ED
:206380002168F1B1CDF808B003E0A36821680133A3604B6800225F6802A80123B847002816
:2063A000F3D12061002D9ED1BAE70B681B681B68002B88D18B68002B85D103604360984606
:2063C000B2E76160002EABD0019BB34288BF4FF00008A5E72E464FF00108A1E7054B05284E
:2063E000187004D0044A137823F0020313700348FEF7F2BBC13D0020C23D0020B882030066
:2064000008B50020FEF7CAFABDE808408020FEF7C5BA00BF08B50020FEF7D4FABDE8084099
:206420008020FEF7CFBA00BF70B5C38893421E4628BF1646934284B00D4612D80024002009
:206440000394CDE9015600F0C3FD01A98020FEF711FB044688B1002000F0C2FD204604B031
:2064600070BD8020144607F0D7FFB4FBF0F202FB1044B4FA84F46409E1E708F0B3F980289F
:206480000BD1094A094B92E8030083E80300002000F0A6FD204604B070BD002000F0A0FDE7
:2064A0001024204604B070BDF0820300941C00202DE9F04F0B780E2B89B018D8F3B1013B02
:2064C0000D2B1BD8DFE803F01F0E281A354C1A1A1A1A0E666F07B24B1B78012B02D00120E6
:2064E000FFF77CFF0024204609B0BDE8F08F852B04D1AB4B1B78032B00F040810624204647
:2065000009B0BDE8F08FA64B1B78032BF6D00320FFF764FF0624E6E7A24806F047F900286B
:20652000E0D0A14B01221A60BFF36F8FBFF34F8FD8E705230DF115008DF8143008F0BAF875
:206540009DF81530994E002203F01F043260032C00F2B980DFE814F0E800B90099008D00C4
:20656000C87803280D46C9D0904E3368002B00F003810022716832609847044600287ED17F
:206580003368002B00F00581AB78002BAAD108F0B3F8A8E7824B1B78002BA3D00020FFF7B0
:2065A0001DFF00249FE74FF08043D3F8383413F0010F7B4B1B7806D0022B93D00220FFF7F2
:2065C0000DFF00248FE7012B89D18BE7BDF81B30002B00F0D880092B28BF09239946FEF78F
:2065E000F3F90546002800F0DB81BB464FF0090ACDF80CB04FF0000801E008F101086A6820
:20660000012357682946002203A8B8470028F4D12A682B7A15681C44C244E4B2002DE7D1DA
:20662000634D644928464A4615F0C2FE2C71A5F802A0FEF7ABF918B1EB7943F02003EB71E6
:20664000FEF7C2F95C4BBDF81B2018600020C3E90159DA6000F0BCFC58498020FEF71EFA25
:206660000446002800F09F81002000F0B9FC062C05D105A8FEF7E8F90446002C73D008F097
:20668000A7F8204609B0BDE8F08F9DF81900020707D005A9FEF7C2F906280446EDD19DF861
:2066A000153013F0600F0ED19DF816303C4A9DF819401278012B00F0B980032B00F0A680D2
:2066C000002B00F0C6800624D9E79DF8190003A9FEF780F90546002859D09DF80C1005AAAB
:2066E000FEF798F906280446C7D19DF8152012F0600FC4D12A4B9DF80C101B78D20940F070
:2067000014819DF816200B2AB9D1052B40F0B280BDF81730FF2B00F2FC809DF817202846FA
:20672000FEF7D0F90446A8E713F0600FC3F341179FD1DB0948D19DF81630032B00F09C80C0
:20674000092B00F0A880012B93D1BDF81730012B8FD1FEF71BF9002800F0D980184A13786E
:2067600023F00203137033686BB108F03BF8044600287FF4B7AE0AE70E2480E70420FFF7AE
:206780002DFE0624AFE608F019F80024ABE6102475E70C4B1B68082B33D008F00FF8A2E62A
:2067A000C13D00209C1C00205C700240941C0020A01C0020BC8203007C1C0020F8820300B3
:2067C000C23D0020300100109DF81620062A00F08780082A73D0002A7FF44BAF7B497C4BD0
:2067E00009781A80890744BF02221A7078490DF115000222FFF718FE0446062C7FF43DAF5E
:2068000037E7744B1B68002BC7D16BE625073FF55AAFBDF81730002B7FF455AF052A01D0FD
:20682000200727D1204607F007FF9CE721073FF54AAFBDF81730002B7FF445AF052A01D070
:20684000230717D1204607F025FF204608F060FA89E7052A01D027070CD1204607F0F8FE1F
:206860005B49034602220DF115000B80FFF7DCFD044602E7082402E7BDF81730012B7FF4B7
:20688000F8AEFEF783F8002841D0504A137843F00203137067E7504C2378043B012BE9D818
:2068A0009DF81730BBB3012B33D1FEF767F92378052B3FF458AF0520FFF790FD53E7464A92
:2068C0001278052A47D0042A7FF4D3AE404B1F703F490DF115000122FFF7A6FD04468CE798
:2068E0009DF81830022B3FF471AE032B36D0012B7FF4BFAEBDF81B30002B3FF444AF37492B
:206900000DF115001222FFF78FFD044675E70F24B5E60724B3E6FEF749F92378042B3FF442
:2069200022AF0420FFF75AFD1DE79DF816705FB30A2F7FF4A4AE052B9CD128460192FEF753
:2069400017F92349019A03460B700DF11500FFF76BFD044691E61E4A1370B9E7BDF81B309F
:20696000002B3FF410AFBDF819109DF8170000F01DFB014600283FF47CAE0A780DF1150007
:20698000FFF752FD044638E7052B7FF473AF10490DF1150002220F80FFF746FD04466CE690
:2069A0004FF0090A3CE607F01DFF802808D10C4B93E8030086E80300204600F011FBD2E66F
:2069C000204600F00DFB102459E600BFC23D0020A01C002034010010C13D0020DC82030068
:2069E000F082030038B505460C4607F0FBFEA84207D194E80300044A82E80300002318462B
:206A000038BD1023184638BD941C002008B1402303600148704700BFA01C0020F0B40D7AE6
:206A20000DB101F109050468002C59D06FF4AB763444142C00F24A81142C00F24781DFE81D
:206A400014F05400E700EE00F500FC000301090110011701450145011E0125012C0145019D
:206A60003B0033012700390115003F0101250024002A40F0DB818A8AAB424FEA1222027110
:206A800040F2338140F26D1303600120F0BC704701250024002A40F0CD814A8AAB424FEA8B
:206AA0001222027140F226816C1C8A8A0271A34240F27B81651CDEE701250024002A40F04A
:206AC000B7810A8AAB424FEA1222027140F217816C1C4A8A0271A34240F26C81651CDCE73C
:206AE00009240471002B00F0F680002A00F0A48104791470012B4FF00404047140F2F08099
:206B00000227012694559F422D78057180F089817E1C0024B342D555047140F27D812546D9
:206B2000771C0024BB429555047140F2708125467E1CFF24B342D555047140F263812546E2
:206B4000771C0124BB429555047140F2568125463E190124B342D555047140F24981254636
:206B6000371900249F429555047180F03C8125467E1C09249E42D555047180F02F812546F8
:206B8000771C21249F429555047180F0228126467C1C09259C42D655057180F015811619E4
:206BA000013435700E7C0671A34240F20881651C16550E8A9D424FEA1626067180F09F807C
:206BC00057196C1C3E708E7C06719C4280F0F280651C16554E8A9D424FEA1626067180F0CF
:206BE000898057196C1C3E700E7D0671A34240F2DC80651C1655898A9D424FEA11210171B6
:206C000073D22A44117040F26D13036001203DE7002A00F0B38004790127002672E7002A4B
:206C200000F0A58005790126002772E7002A00F0978005790127002673E7002A00F08980A0
:206C400005790126002774E7002A5DD005790127002676E7002A00F09E8005790126002789
:206C600077E7002A00F0958005790127002678E7002A00F08C8005790126002779E7002AE0
:206C800000F083800579012700267AE7002A00F08A800679012400277BE7002A00F0818068
:206CA0000579164601247CE7002A78D006791746012487E7002A70D006791746012492E7AD
:206CC000002A3FF4DFAE017911709CE7002303601846F0BC704740F2571303600120F8E706
:206CE0004FF4AC7303600120F3E740F26B1303600120EEE740F2691303600120E9E740F297
:206D0000671303600120E4E701240122A342027173D914440122A342027169D9144400222F
:206D20009C4202715FD2013409229C42027155D2013421229C4202714BD2013409229C42D5
:206D4000027141D201340A8A0271A34237D9651CB7E60124FF229C42027153D20134D4E7B2
:206D600001240022A342027151D90134F2E701240022A34202714FD90134F2E701242A78A0
:206D80000271A3424DD90134F2E70124D1E70124CAE70124C3E70124BCE7012485E6012468
:206DA00097E60124CFE70124C8E74FF4B573036001208EE74FF4B4730360012089E74FF4A2
:206DC000B3730360012084E74FF4B273036001207FE740F26313036001207AE74FF4B17358
:206DE0000360012075E740F25F130360012070E74FF4AF73036001206BE740F25D130360F4
:206E0000012066E74FF4AE730360012061E740F25B13036001205CE74FF4AD730360012086
:206E200057E740F259130360012052E70679E1E60679BDE60679CCE60422012B02717FF6E6
:206E40004FAF02249BE700BF0B780E2B0BD8DFE803F0080808080A0C080A0A0A0A080808F6
:206E600008000020704706207047F0B54B78DA0985B00C46064611D15B09012B02D00620CE
:206E800005B0F0BD8C78002CF9D102681373036A002B3AD0214698472046F1E713F0600F0E
:206EA000C3F3411215D0012AE9D18B78072B07D0082BE4D1F268481CB169FFF7B5FADFE7C8
:206EC000B1F80720182ADAD1C169601CFFF7ACFAD6E703F01F03012BD1D18D78062DCED13C
:206EE00003A80292FFF792FD02AA00920746E278217930463B46FDF7A5FB0528BFD0029A6C
:206F00003946601CFFF790FABAE71846B8E700BF70B54FF0805286B0D2F8A830D2F8A420FD
:206F200000926FEA83436FEA93430B4A0B4E9BB202A80D210EF010F902AD002404E015F8D3
:206F4000013B06F8013B013402A815F0D2FB8442F5D306B070BD00BF14830300E83D0020FB
:206F600038B5114B53F8204023780BB9A01C38BD0020FFF74BFD217891B12246C4F10105B1
:206F80005319DCB2234620F8141012F8011F0029F6D101335B00DBB243F44073038038BDBA
:206FA00040F20233FAE700BF7C83030040B1052808D8054A105C28B1044B53F820300BB190
:206FC000FFF7CEBF00207047948303007C83030072B6024A1368013313607047E01C0020D2
:206FE000034A1368013B136003B962B6704700BFE01C002010B50446006830B1002108F043
:20700000CBFC54F8040F0028F8D110BD2DE9F043038883B0044643B1B3F5867F0CD1822912
:2070200010D0012003B0BDE8F0834FF486730120238003B0BDE8F08300230380032003B03D
:20704000BDE8F08304F054F8BFF35F8F19491A4B0E6800220A601F781A70FFB2BFF35F8FFD
:20706000164D04F049F828680028DED0DFF85090DFF8508003E055F8040F0028D5D090F81C
:207080004A3026FA03F3DA07F5D590F8493047FA03F3DB07EFD503F03BFB0028EBD02B6838
:2070A000D9F80020009218464246022103F0CEFAE1E700BFF41C0020C33D00209C000020F6
:2070C000283F00206571000010B50C4A90F84B30126882B001330092044680F84B30084A34
:2070E00003468021203003F0B1FA064B19782246002002B0BDE8104008F0D2BC283F00209A
:20710000C97000001145002010B4094A094C13681943116021780346012202FA03F30B43C7
:20712000DBB2237004485DF8044B08F0E7BC00BFF41C0020C33D0020A400002010B50446C2
:2071400090F84A1090F8490003F094FF10B994F8480010BD01280ABF94F84800002080F036
:20716000010010BD70B582B0044603F0D1FA08B902B070BD04F12006304603F0C9FA0546B0
:207180002046FFF7DBFF01280FD00028F0D1002DEED1304603F0A2FA0D4B22462846197818
:2071A00002B0BDE8704008F07BBC002DE0D0094B094A1B68009300253046234684F84B50E4
:2071C0007E2103F043FA054B28462246E7E700BF10450020283F0020C97000001245002081
:2071E000F8B508F0D1FB304B304C187008F0CCFB2F4B304F187008F0C7FB2F4922682F4B29
:2072000008700025FF2139727B60FD60002A42D02B4E09E091F84A00F9683A72834054F841
:20722000042F0B43FB60B2B392F84A3092F84910526C03F01F0343EA41131F2BC6BF03F010
:207240001F0331464FF0A04103F5E07342F08C0241F82350236893F84A1093F8490003F087
:20726000C7FE226892F84A3092F8490003F01F0343EA4010012105F00BFD2168387A91F873
:20728000492082424FF00103C4D0FF28C2D054F8042F002AC8D10B48002108F07DFBBDE866
:2072A000F840044803F0FABE124500209C00002010450020E41C00201145002009710000E7
:2072C00000030050A400002070B4421EC11C002012F8013FA3F13004E5B2092DA3F141065C
:2072E00004D8204491420AD00001F1E7052EA3F16104A3F1370504D891422844F4D170BCC0
:207300007047052C02D8573B1844EBE70020F6E7D8B10268D2B110B4D0E90143A3420CD2F4
:20732000591E0A4403E001339C42836008D012F8011F2029F7D99C4202D05DF8044B70478A
:20734000013C84605DF8044B704770471046704750B138B50446006828B1A568284415F0F6
:20736000C8F92844A06038BD704700BF70B5044600B30668CEB14368CBB900291ADBA2680F
:20738000013111448B4218D223699BB9B1F1804F16D2236A4D00D3B1304629469847064608
:2073A00018B3A368C4E900651E44304670BD82689342E2D80026304670BD1644304670BDA1
:2073C0000029F7DB236A6FF00045002BE4D1A36928469847064640B1A2682168013214F041
:2073E000E7FFE36920689847DBE7E36920689847C4E90066D9E700BFF8B5002838D00E46BC
:20740000002937D084682ABB14B3DFF86CC0226ADAB1B2421CD0013A771E00E0C0B117F87A
:20742000010F1CF8003003F00303012B12F8013F1CF8035005F003050CBF00F12001014601
:20744000012D08BF20339942E8D02468002CDED12046F8BD002CFBD0216A304629B115F0F8
:2074600036F90028F4D02468F4E70C462046F8BD0446EDE70C46EBE7459B03002DE9F04FA3
:2074800016689368F45C9046222C03F10102814683B006EB020506EB03001AD1D8F80470F3
:2074A000BA4216D28A462C46002203E00134A31BBB420ED22378222B15D05C2BF6D1013481
:2074C000A31BBB4205D20134A31BBB4202F10102F0D325B1D8F80000281AC8F808000020A1
:2074E00003B0BDE8F08F231AC2F101001844D8F81030984707460028EBD0A54280F09980D9
:20750000DFF890B13A4605E002F8013B0135A54280F090802B785C2BF6D1611B00291ADD8E
:207520006E78752E17D85B2E38D9A6F15C03192B11D8DFE803F03710101010102D10101078
:207540002710101010101010211010101B10150D052901922BDCD8F8143038469847B9E71D
:20756000092302F8013B02231D44D0E70D2302F8013B02231D44CAE70A2302F8013B022347
:207580001D44C4E70C2302F8013B02231D44BEE7082302F8013B02231D44B8E7222E01D0A8
:2075A0002F2ED8D1022302F8016B1D44AFE7A81CFFF78AFEA0F55C43B3F5806F0646CAD34D
:2075C000A0F55843B3F5806F019A42D2AB1DE31A052BC0DDAB795C2BBDD1EB79752BBAD1DB
:2075E00005F10800FFF770FEA0F55C43B3F5806FB1D20BEA8626C0F309003043019A00F57B
:2076000080360C234FF0040E4FF0F00C0320104406F03F0161F07F0100F8011990424FEA5E
:207620009616F5D14CEA0606F6B216701D4472446DE73A46102300211170C9F80030CAF8F5
:207640000070D8F80030E31A0133C8F80830012046E77F2804D8C6B206234FF0010EE4E706
:20766000B0F5006F06D206234FF0020E4FF0C00C0120CCE7B0F5803F06D206234FF0030E12
:207680004FF0E00C0220C2E7B0F5881FBFF463AF0623B7E700FC0F0083683BB15B681BB1AB
:2076A00019604B6083685960012070478160C1E900310120704700BF10B5034628209847A2
:2076C000044618B12822002114F09AFE204610BD002900F0BD802DE9F04706460846002EF2
:2076E00000F090803478002C00F098805B4D32464FF0000901270FE0A4F10803DBB2072CCB
:2077000007FA03F301D92B420AD11F2C98BF09F1050912F8014F4CB1222CEDD95C2CF8D1EA
:2077200012F8014F09F10109002CF5D1971B07EB0905E91CFFF71AFE804600285BD0B9F171
:20774000000F00F087800446222304F8013B3378A3B3DFF810A15C274FF0740909E0222B5E
:2077600009D05C2B07D02370204616F8013F441C23B31F2BF3D8204600F8017B3278222A70
:207780003CD8072A32D9A2F108031A2B2ED8DFE803F02A27242D211E2D2D2D2D2D2D2D2DAD
:2077A0002D2D2D2D2D2D2D2D2D2D2D2D0E002223637016F8013F441C002BDAD108EB050407
:2077C000222200236270A3700120BDE8F08772236370CAE766236370C7E76E236370C4E7EE
:2077E00084F80190C1E762236370BEE751460DF0DBFC601DB9E70020BDE8F0875C2AF5D1C7
:207800006270B2E70321FFF7B1FD0028F3D0144B1A889B78028083700120EDE70321FFF7B2
:20782000A5FD80460028E6D0254602274FF001094046222400F8014B2A46314614F0B8FD75
:20784000002308F8094008F807300120BDE8F0870020704707F101090237E9E7370000042B
:20786000C8830300CC8303002DE9F04D047B202C8EB080468A4625DC74B3631E1F2B2AD881
:20788000DFE813F077008400290095002900290029009E0029002900290029002900290056
:2078A0002900EF002900290029002900290029002900290029002900290029002900290072
:2078C00029002E00402C00F0F880802C03D10069002840F0CE80002420460EB0BDE8F08D84
:2078E0000029F8D001215046D8F80840FFF73EFD0028F0D05B230370DAE90223013201336E
:20790000CAE90223002C00F0C6802C26202700250AE001300570DAF808304344CAF8083054
