:020000040000FA
:20100000000004201DA4000045A4000047A4000049A400004BA400004DA40000000000004A
:201020000000000000000000000000004FA4000051A400000000000053A4000055A40000D8
:2010400099C5000099BB0000A153010057A4000057A4000057A4000035C2000057A4000006
:201060000119010057A4000057A40000A9C6000057A40000A9C5000057A4000057A4000091
:20108000B5E6000057A4000057A4000057A4000057A4000057A4000057A4000057A40000D8
:2010A00057A4000057A4000057A4000057A4000057A4000057A4000000000000000000004E
:2010C00057A4000057A4000057A4000057A4000057A4000057A4000057A4000099DE0000BC
:2010E00057A4000057A4000057A40000000000000000000057A400000000000057A4000009
:201100000000000000000000000000000000000000000000000000000000000000000000CF
:201120000000000000000000000000000000000000000000000000000000000000000000AF
:2011400000000000000000000000000000000000000000000000000000000000000000008F
:2011600000000000000000000000000000000000000000000000000000000000000000006F
:2011800000000000000000000000000000000000000000000000000000000000000000004F
:2011A00000000000000000000000000000000000000000000000000000000000000000002F
:2011C00000000000000000000000000000000000000000000000000000000000000000000F
:2011E0000000000000000000000000000000000000000000000000000000000000000000EF
:2012000001F0FF01102A2BDB10F0070F08D010F8013B013A8B422DD010F0070F42B3F6D194
:20122000F0B441EA012141EA014122F007047FF000070023F0E80256083C85EA010586EA41
:20124000010685FA47F5A3FA87F586FA47F6A5FA87F68EB9EED1F0BC01F0FF0102F007023C
:2012600032B110F8013B013A83EA010313B1F8D10020704701387047002D06BF354603389F
:20128000073815F0010F07D1013015F4807F02BF013015F4C03F0130F0BC0138704700BF63
:2012A000002956D02DE9F047D1F8008092B00C46B8F1000F30D0D1E90196331D4B45054681
:2012C0002ED808EB0607A6493846042219F011FE002840D0731D994505D3A249052238464F
:2012E00019F007FE38B3A0493846042219F001FE38B34E4510D218F80630222B00F0F98004
:201300002D2B31D0A3F13002092A2DD95B2B00F004817B2B00F08280002012B0BDE8F087E4
:20132000731D9945E5D38F49052208EB060019F0E0FD0028DDD10120E860A3680533A36024
:20134000EBE702230120EB606861A3680433A360E3E7002070470423EB60A36801200433A6
:20136000A36012B0BDE8F087731E002102AFA9EB06069844019138464FF02E0C18F8012FE4
:20138000452A15D82A2A15D9A2F12B031A2B11D8DFE803F04210423810424242424242425C
:2013A00042424210101010101010101010104200652A31D012AB0B44002601A9384603F890
:2013C000406C16F075FEDDF804A0BA4559EC108BA2D085ED060B60A3D3E9002310EE100AA1
:2013E000494619F05BF9002800F08B806FF000436B610823EB60A368AAEB07071F44A760E2
:2014000001208AE780F800C001313F2900F10100D0D0B142B2D1CDE70270F5E7E368B3F56B
:201420007A7FBFF479AF0133E36018F806307B2B7FF472AF0136A660204605F0CFF9D4E9C4
:201440000123934280F0BD802268D25C7D2A00F0DE800026013BA3603746B0463EE01860CB
:201460004360D4E901230133934280F0B080A360204605F0B3F9224606F1100106F10C00C2
:2014800005F062FA002800F0A280204605F0A6F933693362C6F81080D4E90123934280F022
:2014A00096802268D25C3A2A40F091800133A360204605F093F921463046FFF7F1FE0028B1
:2014C00000F08580204605F089F9D4E9012393427DD22268D35C2C2B40F09180206905F066
:2014E00051FB3346064600286ED0002FB7D10746B7E7224605F1100105F10C0005F024FA4F
:201500000BE71A4B00224046494619F0BDF8002851D04FF000436B616BE7E368B3F57A7FAA
:20152000BFF4FAAE0133E36018F806305B2B7FF4F3AE0136A660204605F050F9D4E9012337
:2015400093423ED22268D25C5D2A53D0013B0026A360374625E000BF0000C0FFFFFFDF41C1
:20156000BCBD0100C4BD0100CCBD01000000E0C118604360A3680133A360204605F02EF965
:2015800021463046FFF78CFE03462046FBB105F025F9D4E90123934219D22268D35C2C2BCF
:2015A0001AD1206905F0EEFA3346064660B1002FDED10746DEE74046494619F099F868619C
:2015C00017E7013BA360A7E6002F3FF4A5AE384605F0B0FE0020A0E65D2BF8D1E368013BED
:2015E000E3607E602023C5E90273A3680133A360012092E6E368013BE3600027F2E77D2B17
:20160000E5D1E368013BE3607E604023EBE7E368013BE3600027F8E7D0B5194B186857ECBB
:20162000106B05F0AFFA044670B10823C360C0E9066711A3D3E900233046394619F02EF80B
:2016400020B16FF0004363612046D0BD0D4B00223046394619F018F820B14FF000436361C1
:201660002046D0BD3046394619F042F860612046D0BD00BFAFF300800000C0FFFFFFDF41CD
:20168000880000200000E0C1D0B5038804463BB15C2B0DD188290FD082290DD00120D0BD90
:2016A00080211D4808F072FB5C2323800120D0BD002303800320D0BD06F020FFE8B906F0ED
:2016C00001FF02460B4652EA030116D010A7D7E90067D90141EA5261D0018F4208BF864284
:2016E0000FD3002908BFB0F57A7F0DD34FF47A72002319F095F80146D3E708480DF0FAFB6F
:20170000D2E74FF4F051CCE70121CAE7AFF30080E733750000000000140F0020C40000202E
:201720002DE9F04F2DED028B83B00646019105F059FF8146304610F001F959493246484670
:2017400005F02AFF306A002840F08C80726A1AB15449484605F020FF9FED4F0B5249484678
:2017600005F0E6FE05F032FFF36A002B80465EDD0024DFF85CB1DFF85CA19FED4C8A274636
:2017800012E0002A3CD04A480DF0B6F9336B2344986960BB2946404605F09AFEF36A0137AB
:2017A000BB4204F11C0442DD05F01CFF336B1A590546234422B1594605F0EEFE336B2344CD
:2017C0005A682AB15146284605F0E6FE336B23441A7A012A25D0022AD3D1DA6835492846D7
:2017E00005F0DAFE336B234498690028D2D018F065FC41EC100B3049284605F099FEC9E778
:20180000D3ED057A67EE887AFDEEE77A17EE900A18F054FC41EC100B2849284605F088FE4D
:20182000B4E71A7C2649284605F05EFEAEE725494246484605F054FE484605F041FE019B8B
:201840001B680446BBB11846214619F042FB204615F06EFF484603B0BDEC028BBDE8F04F11
:2018600005F068BD18F02AFC41EC100B1649484605F05EFE6AE719F034FB013015F050FF8C
:20188000019A034610600028DDD110480DF042FBDDE700BFAFF30080000000000000F03FB8
:2018A000D8C50100E0C50100ACC101000000C842F8C50100F4C50100B4CF0100ECC50100BE
:2018C000F0C50100B8CC0100DCC5010018C60100E4C50100E8C501002DE9F041DFED1C0ABB
:2018E0009FED1C0A069E154680460F461C4609F027FA002388ED000AF2EE000A3B60B1EEDA
:201900000C0A09F01DFAF7EE000A85ED000A9FED120A09F015FADDED077A84ED000AF8EEDA
:20192000E77A17EE900A18F0DBFB07A3D3E9002318F058FD094B002218F074FA18F020FFD0
:201940003060BDE8F08100BF82293D704E7C73400000664300006143CDCC4C3F000020407C
:201960002DE9F04110EE100A10EE905A11EE108A18F0B6FB0246284614460D4618F0B0FBB8
:2019800010A3D3E9002318F003FC064640460F4618F0A6FB02460B463046394618F0F8FB55
:2019A00002460B462046294618F01CFD044B002218F038FA18F0E4FE00EE100ABDE8F081E5
:2019C00000002040AA4C58E87AB6FB3F000000002DE9F8432DED028BDFED3D0AD0ED001A25
:2019E0000A9EDFED3C8AB6EE001AB0EE408A9FED3A0A154604469946884609F0BBF90B9815
:201A000084ED000A18F05AFB2DA3D3E9002318F0BFFB18F0B5FEF0EE480A01EE900AB0EE6B
:201A2000681A9FED2E0A09F0A5F988ED000AD5ED001A9FED2B1AF2EE000AB1EE0C0A09F005
:201A400099F985ED000AB0EE681AD9ED001A9FED250AF7EE000A09F08DF989ED000A98ED4A
:201A6000007AD5ED007A77EE677A10EE107A17EE900A18F035FB024620680D46144618F086
:201A80002FFB11A3D3E9002318F082FB02460B462046294618F07CFB044638460D4618F0F4
:201AA0001FFB02460B462046294618F071FB18F067FE3060BDEC028BBDE8F883AFF30080B5
:201AC000295C8FC2F5A80940AA4C58E87AB6FB3F00006643CDCC4C3D00006143000000003B
:201AE000CDCCCC3DCDCC4C3F70B588B0064605F079FD044668460FF021FF1D496A46204679
:201B000005F04AFD1B4A1C49204605F045FD9FED160B1A49204605F00BFD204605F0D0FC88
:201B200005460DF0F7F9306850B1294619F0D1F9284615F0FDFD204605F0FCFB08B070BDEE
:201B4000284619F0CEF9013015F0EAFD30600028EBD10B480DF0DEF9284615F0E9FD2046D0
:201B600005F0E8FBEAE700BF000000000000F03FD4D10100E0D10100E8D10100F0D10100FA
:201B800018C60100000000002DE9F04FA3B01F4600231E93A44B19921B6807930446184626
:201BA000884619F09EF94FF0000A05464FF0000BCDF874801D9B1A782B2A4CD039D80D2A1D
:201BC00032D8082A32D8002A3CD000230E931D9E3378302B40F0B480737803F0DF03582B5D
:201BE0006CD10E9B01931EAB029700938F4A1FAB1DA9204616F04EFB10F00707054605D02A
:201C0000062F2AD1013600231D960E93199B002B40F096850E9BDBB152460BF1004343EC81
:201C2000102B23B0BDE8F08F202ACED101331D93C0E72D2AC9D101220E925A1C1D925B7852
:201C4000002BC4D1199BCDF87480002B40F0768552465B46E3E70022EEE71E9A3AB135210E
:201C600020A819F0EEFB1E99204616F0BBFD013F052F07D8DFE807F00E0B181D0E034FF020
:201C8000000BDA462807C1D54BF0004BBEE7DDE920ABF7E7DDE920A31F9A23F4801302F2DA
:201CA000334243EA025BEDE7DFF884B14FF0000AE8E76FF0004B4FF0FF3AE3E71D9B5A1C13
:201CC0001D925B78302BF9D0002B9FD001234FF0000904931D9B0A93CDF824904F460A2232
:201CE0001D980678A6F13003D9B209292AD907992A4619F0FEF898B3002033463D4607901A
:201D00000246652B01D0452B18D11DB9049B034398D00025DDF8748008F101031D9398F873
:201D200001302B2B75D02D2B7BD04FF0000CA3F13001092940F28280CDF8748000269DE062
:201D40000023C4E7082FD8BF099900F10100DABF02FB0133099302FB093901371D90BFE723
:201D60001D9B5A191D925B5D002F37D007903D46A3F13002092A12D90122C2E71D9B5A1CA3
:201D80001D925B780130302BF8D0A3F13102082A00F2DB841D9A079000200A920546303B63
:201DA00000F1010214D00799114407912A4600EB050E0A21724513D12A18082A05F101051A
:201DC00005441CDC09990A2202FB0133099300221D9B591C1D915B781046C9E73846D2E71A
:201DE000082A04DC099E4E4309960132E2E702F1010CBCF1100FD8BF01FB09F9F5E7102D84
:201E0000DCBF0A2202FB0939E1E70023079301227CE74FF0000C08F102031D9398F80230F6
:201E200085E74FF0010CF6E7BCD3010094D301000000F07F1D9B591C1D915B78302BF9D0D4
:201E4000A3F1310108293FF679AFA3F1300E1D9B08931D9B591C1D915B78A3F13006092E5A
:201E600037D9089E891B082944F61F6602DC7645A8BF7646BCF1000F00D07642002D4FD1CB
:201E8000049901437FF4C2AE002A7FF4DBAE692B27D024DC492B24D04E2B7FF4D3AE9E4911
:201EA0001DA819F06DF900283FF4CCAE1D9B1B78282B2DD1994920AA1DA819F075F9052868
:201EC00026D1219BDDF880A043F0FF4B4BF4E00B9CE60A2101FB0E3EAEF1300EB9E76E2BA8
:201EE000DBE78F491DA819F04BF900283FF4AAAE1D9B8C49013B1DA81D9319F041F910B939
:201F00001D9B01331D93DFF82CB24FF0000A7DE6854801F031FA8DED040BDDE904AB75E682
:201F2000079B0998F31A002F08BF2F46102D0893A846A8BF4FF0100818F0B0F8092D8246B4
:201F40008B4613DD794B03EBC80353E9122318F01FF9824648468B4618F0A0F802460B4652
:201F60005046594617F05EFF82468B460F2D38DC089B002B3FF44AAE24DD162B0BDC6B4D05
:201F800005EBC305D5E9000152465B4618F000F982468B463AE6089AC5F12503934220DB87
:201FA000624CC5F10F0504EBC50152465B46D1E9000118F0EDF8089B5D1B04EBC504D4E983
:201FC0000023E3E7089B16330BDB079B574A9E1B02EBC606D6E900235046594618F002FA72
:201FE000D6E7089BA5EB08089844B8F1000F71DD18F00F030AD04D4901EBC30152465B468C
:20200000D1E9000118F0C4F882468B4638F00F084DD0B8F59A7F22DD00252E4609950795B4
:202020002223DFF810B123604FF0000A099B002B3FF4ECAD1E99204616F0D4FB0799204664
:2020400016F0D0FB3146204616F0CCFB0999204616F0C8FB2946204616F0C4FBD6E50023BC
:202060004FEA2818504659469946B8F1010F21DC0BB182468B462E4BABF1547B03EBC90924
:2020800052465B46D9E9000118F082F8294B0A460B4029498B428246BED8A1F580118B4222
:2020A00086BFDFF898B04FF0FF3A02F1547B0023049381E018F0010F07D01D4B03EBC90356
:2020C000D3E9002318F064F8012309F101094FEA6808CAE7EBD0C8F1000818F00F020AD0CC
:2020E000124B03EBC20350465946D3E9002318F079F982468B465FEA2818D8D0B8F11F0FA1
:202100001EDD00252E460995079522234FF0000A4FF0000B236089E74ED50100A8D3010086
:2021200046D5010045D6010041D60100D8B80100B0B801000000F07F0000A07CFFFFEF7F5E
:2021400018F0100318BF6A23DFF8B493049350465946002318F0010F04D0D9E9002318F01A
:2021600017F801235FEA680809F10809F2D10BB182468B46049BBBB1CBF30A53C3F16B0308
:20218000002B594610DD1F2B40F32881342BDEBF203B4FF0FF3202FA03F34FF0000ACCBFD5
:2021A0004FF05C7B03EA010B002200235046594618F056FA0028A4D1099B00930A992B4656
:2021C0003A46204616F07AFB099000283FF424AF079B9E1B089B002BB4BF334600231093FC
:2021E000089B002523EAE37318932E46099B2046596816F0B7FA079000283FF411AF099BBD
:202200001A69023203F10C0192000C3018F0C8FC4BEC10AB20AA1FA92046CDE90AAB16F011
:202220001DFE1E9000283FF4FBAE0121204616F08FFB064600283FF4F3AE1F9B0499002BEF
:20224000ABBF109A189A189FDDF84090ACBF03EB0209D71A209AA3EB01089044A34B08F1FB
:20226000FF389845C2F1360280F2CC80A3EB08031F2BA2EB03024FF0010100F3B68001FAC7
:2022800003F3119300230C9309EB0208049BC14517441F444B46A8BF4346BB42A8BF3B461B
:2022A000002BC2BFA8EB0308FF1AA9EB0309109B002B17DD31461A46204616F005FC0646C1
:2022C00000283FF4ADAE01461E9A204616F056FB0F9000283FF4A4AE1E99204616F082FAA1
:2022E0000F9B1E93B8F1000F00F39180089B002B08DD189A0799204616F0E6FB07900028B6
:202300003FF48EAE002F08DD07993A46204616F035FC079000283FF483AEB9F1000F08DDBC
:2023200031464A46204616F029FC064600283FF477AE079A1E99204616F08CFC054600287A
:202340003FF46EAEC3680F930023C360314619F029F8002865DA0F9B53EA0A0340F08780E8
:20236000CBF31303002B40F082802BF000431B0D1B05B3F1D66F7AD96B6913B92B69012BEA
:2023800075DD29460122204616F0F8FB3146054619F008F800286ADD0499554A5B460029BA
:2023A00000F0858002EA0B01B1F1D66F7FDCB1F15C7F7FF7AAAE4F4A0023CDE91632504653
:2023C000DDE91623594617F0E3FE0B46034308BF222382468B4608BF23602BE64FF0FF3270
:2023E00002FA03F303EA0A0ADEE6C8F17F4808F57F0808F57B4808F1E20801FA08F30C93EA
:20240000119141E700230C93012311933CE71E994246204616F0B2FB1E9000287FF466AF8F
:20242000FEE55F466ED10F9ACBF3130342B3324A934228D1049B5046EBB12D4A3A40B2F1B4
:20244000D46F4FF0FF3119D8120DC2F16B0301FA03F3984217D1294B9F4202D101303FF45A
:20246000DFAD234B3B4003F5801B4FF0000A049B002BA0D1DEE54FF0FF33EAE70B46E8E7AB
:2024800053EA0A0388D00C9BDBB13B42EFD00F9B049A50465946C3B118F050FD02460B464C
:2024A000DDE90A0117F0BEFC82468B46DFE71340A3F580136FEA135B6FEA0B5B4FF0FF3AAF
:2024C000D5E7119B13EA0A0FE0E718F037FD02460B46DDE90A0117F0A3FC0022002382465E
:2024E0008B4618F0BDF80028C1D00EE602FCFFFF0000F07F00005039FFFF0F00FFFFEF7F34
:2025000088B801003146284618F068FF59EC108B10EE100A00224FF08043494618F0B4F8C7
:2025200000287CD00F9B002B4CD0954B0022CDE90C23DFF84C924FF00008924B3B40119357
:20254000119A914B9A4240F0B280DDE90A23DDE90C01A7F1547B4BEC10ABCDE91623CDE9F2
:202560000C0116F0FFFBDDE90C0153EC102B17F00FFE52465B4617F055FC0B468149834A74
:202580001940914282465ED90B9B02F15472934203D10A9B01333FF443ADDFF8FCB14FF049
:2025A000FF3A1E99204616F01DF90799204616F019F93146204616F015F92946204616F0BF
:2025C00011F913E6BAF1000F1BD1CBF31303F3B96B4B00224046494618F04CF8D0B940468A
:2025E00049466B4B002217F0D3FD8046894609F10043CDF868801B93DDE91A23CDE90C2388
:202600009BE7BAF1010F02D1002F3FF47EAD614B00228CE7DFF878914FF00008E7E75C4B40
:2026200040464946002217F0B3FD0F9B8046894633B901F1004312901393DDE91223DDE745
:20264000CDE91289F9E703F1547B049B002BA8D12BF00043119A1B0D1B059A42A1D140461E
:20266000494618F0F5F817F065FD02460B464046494617F0D5FB0F9ACBF3130343EA0A0331
:2026800013438046894653D035A3D3E9002317F0F1FF00287FF4CEAC33A3D3E9002340462E
:2026A000494618F005F800283FF47BAFC2E4049B33B3119BB3F1D46F22D82DA3D3E900239A
:2026C0004046494617F0E0FFA0B14946404618F037F8012838BF012017F0E0FC0F9B8046CE
:2026E000894613BB01F1004314901593DDE91423CDE90C230D9B119A03F1D6639B1A0D9305
:20270000DDE90C019DED0A0BCDE90C0116F02AFBDDE90C0153EC102B17F03AFDDDE90A23DB
:2027200017F080FB82468B468FE7CDE91489DDE711A3D3E9002317F09DFFB4E700230E935C
:20274000199A1D9B1360FFF765BA652B3FF45DAB452B3FF45AAB0122FFF792BBAFF300808B
:202760009535A094FFFFDF3F35E5AF350000E03F0000C0FFFFFFDF419535A094FFFFCF3F3B
:202780000000F03F0000F07F0000E07FFFFF9F7C0000E03F0000F0BFFFFFEF7F00000000E9
:2027A0002DE9F04F2DED028B57EC106B95B0456ADDF880800591CDE90267044609920F935A
:2027C00075B9102014F0ACFF0246606220B9B24BEA21B24815F018FDC0E901550560C56064
:2027E000636A196851B15A684A60012393408B60204615F0F7FF636A00221A603B1EB9BFA0
:2028000023F0004303930023C8F80030DDF80C90A34BBCBF0122C8F8002033EA09031BD1C7
:202820000F9A42F20F731360C9F31303334300F07A85219B63B99B4B24E09B4B0093083319
:20284000219A1360009815B0BDEC028BBDE8F08F944B00930333F3E79DED027B002251ECAB
:20286000170B00238DED0A7B17F0FAFE804658B10F9A01231360219B002B00F051858B4886
:202880001860431E0093DDE79DED0A0B12AA13A9204616F0E3FAC9F30A558346002D7CD04B
:2028A0000B9BCDF84080C3F31303DDE90A6743F07F5747F44017A5F2FF357D4B0022304624
:2028C000394617F0ADFA6EA3D3E9002317F060FC6DA3D3E9002317F0A5FA064628460F46D4
:2028E00017F0ECFB6AA3D3E9002317F051FC02460B463046394617F095FA06460F4617F0DE
:20290000F7FE0022824600233046394617F0B2FE48B1504617F0D2FB32463B4617F0A0FE08
:2029200008B90AF1FF3ABAF1160F54D8614B03EBCA03D3E90023DDE90A0117F09BFE0028C7
:202940004BD00AF1FF3A00230E93129B5D1B6B1E049343BF0023C5F1010804934FF000085D
:20296000BAF1000F3BDB049BCDF834A05344049300230693059B092B69D8052BC4BF043B5E
:202980000593059BA3F10203CCBF00250125032B69D8DFE803F02C4E4C5ADDE912531D44BB
:2029A00005F23243202BC1BFC3F1400305F2124009FA03F326FA00F0DABFC3F1200306FA27
:2029C00003F0184317F06AFB01230646A1F1F877013D109371E70123B6E70E90B5E7CAF1DD
:2029E000000306930023A8EB0A080D93C2E700230893099B002B39DC4FF00109CDF80490E6
:202A00004B46CDF82490606A00224260042202F114069E4241682FD9204615F0A3FE0090BE
:202A200000284BD1244B02464FF4D571D1E60123DEE700230893099B0AEB030909F1010311
:202A4000012B0193B8BF0123DDE70123F2E701250023059308954FF0FF390022CDF80490EA
:202A600012230992CFE701230893F4E7DDF82490CDF804904B46C6E7013141605200C6E744
:202A800061436F63A787D23FB3C8608B288AC63FFB799F501344D33F73D501004FD6010029
:202AA0000000F07F4BD6010042D60100FDD701000000F83FD8B80100CBD60100636A009AC6
:202AC0001A60019B0E2B00F2AD80002D00F0AA80BAF1000F36DDC34A0AF00F0302EBC303A8
:202AE00093ED007B1AF4807F4FEA2A17B0EE478AF0EE678A16D0BC4BDDE90A01D3E9082371
:202B000017F070FCCDE9020107F00F070325B64E57B9DDE9020153EC182B17F063FCCDE9D9
:202B2000020129E00225F2E7F90708D551EC180BD6E9002317F02CFB41EC180B01357F1027
:202B40000836E5E700F0A680CAF10006A54BA64F06F00F0203EBC203D3E90023DDE90A0145
:202B600017F016FBCDE90201361100230225002E40F08580002BD2D10E9B002B00F08C80F2
:202B8000DDE90267994B00223046394617F072FD002800F08180019B002B7DD0B9F1000FAF
:202BA0003CDD0AF1FF3307930022914B3046394617F0EEFACDE902010135CDF83090DDE919
:202BC0000267284617F07AFA32463B4617F0E0FA884B002217F026F9A1F15073CDE90201A0
:202BE00003930C9B002B5CD1834B00223046394617F016F9DDE9022306460F4617F058FD5D
:202C0000002840F09682DDE90221304601F10043394617F02FFD002840F08882DDE90A23A9
:202C2000CDE90223139B002BC0F25881BAF10E0F00F354816B4B03EBCA03D3E90089099B6B
:202C4000002B80F2E380019B002B00F3DF8040F06D82694B00224046494617F099FADDE9F1
:202C6000022317F01BFD019E3746002840F04382009D312305F8013B0AF1010A3FE2F2078D
:202C800005D5D7E9002317F083FA01350123761008376CE702256FE7019BCDF81CA00C9348
:202CA0008DE700990C980C9A4E4B9DED027B014402910899B0EE478AF0EE678A03EBC203B3
:202CC00053E90223002945D04C49002017F08AFB53EC182B17F0A4F8009D41EC180B394683
:202CE000304617F005FD0C9017F0E8F902460B463046394617F094F80C9B303305F8013B6D
:202D000053EC182B06460F4617F0B4FC002865D132463B463549002017F082F853EC182BE1
:202D200017F0A8FC002840F0B980029B9D423FF475AF2F4B51EC180B002217F029FA2C4BE7
:202D400041EC180B00223046394617F021FA06460F46C4E751EC170B17F01AFA029B009DEA
:202D60000C9341EC180B3946304617F0C1FC119017F0A4F902460B463046394617F050F889
:202D8000119B303305F8013B029B9D4206460F464FF0000234D1194B51EC180B17F042F883
:202DA00002460B463046394617F082FC002875D153EC182B1149002017F032F802460B46CC
:202DC0003046394617F056FC00283FF427AF0C9D6B1E0C9315F8013C302BF8D0DDF81CA0A5
:202DE0004AE000BFD8B80100B0B801000000F03F0000244000001C40000014400000E03F8E
:202E0000AF4B17F0C5F906460F46ACE7DDE90267009D42464B463046394617F0E3FA17F0FA
:202E200067FC029017F04AF942464B4617F0B0F902460B463046394616F0F2FF029E019FC5
:202E4000303605F8016B009EAE1BB74202460B4637D116F0E7FF42464B4606460F4617F0F5
:202E600027FCC8B942464B463046394617F0F8FB10B1029BD9070FD42046594615F0B2FCCD
:202E800000232B700F9B0AF101001860219B002B3FF4D8AC1D60D5E4CDF81CA02B461D462D
:202EA00013F8012D392A08D1009A9A42F7D1079A00990132079230220A701A7801321A703E
:202EC0008CE77F4B002217F063F90022002306460F4617F0C5FB00289BD0CDE7089A002A70
:202EE00000F0C480059A012A00F3A880109A002A00F0A08003F23343069E4546049A01217B
:202F00001A4420469844049215F022FD0746002D0BDD049B002B08DDAB42049AA8BF2B46E3
:202F2000A8EB0308ED1AD31A0493069BFBB1089B002B00F09F80002E11DD394632462046C5
:202F400015F0C2FD5A4601460746204615F016FD59460790204615F045FC079B9B46069BF5
:202F60009A1B04D05946204615F0AEFD83460121204615F0EDFC0D9B002B06467CDD1A46FC
:202F80000146204615F0A0FD059B012B064676DD00230693336906EB8303186918F0B2F974
:202FA000C0F12000049B184410F01F0000F08680C0F12003042B7FDDC0F11C00049B03441E
:202FC000804405440493B8F1000F05DD59464246204615F0D3FD8346049B002B05DD314665
:202FE0001A46204615F0CAFD06460E9B002B69D03146584618F0D6F9002863DA00235946D3
:203000000A22204615F010FC089B0AF1FF3A8346002B00F08F81394600230A22204615F009
:2030200003FCB9F1000F074600F38E80059B022B50DC89E0129BC3F136035DE7019B5E1E32
:20304000069BB342BFBF069B0696F21A0D9BB6BF9B189E1B0D93019BB8BF0026002BB5BF12
:20306000A8EB0305019B0023454647E7069E089F45464CE7069A75E7059B012B18DC029BDB
:20308000B3B9039BC3F31303A3B9039B23F000431B0D1B052BB1049B0133049308F101087A
:2030A000012306930D9B002B7FF474AF012079E70023F6E7029BF4E785D018461C307DE78E
:2030C00000002440019B002B38DC059B022B35DDDDF80490B9F1000F0DD131464B460522A3
:2030E000204615F0A1FB01460646584618F05AF900283FF7BDAD099B009D6FEA030A4FF08F
:2031000000083146204615F06DFB002F3FF4B4AEB8F1000F05D0B84503D04146204615F04A
:2031200061FB3946204615F05DFBA5E600263746E1E70C9EDDF81CA0374699E5089BDDF84D
:203140000490002B00F0FD80002D05DD39462A46204615F013FD0746069B002B5CD07968A4
:20316000204615F0FFFA054628B9804B024640F2EA21FFF72EBB3A690232920007F10C0122
:203180000C3017F00DFD01222946204615F0F6FC009B01330193009B4B440793029B03F03C
:2031A0000103B84606930746019B3146013B5846029317F0E1FE034630330490414658465A
:2031C000089318F0EFF83A4681463146204615F041FDC268089B054602BB0146584618F03C
:2031E000E1F8089B024629462046CDE9083215F0F9FA059B099A019D43EA0201069B0B434E
:20320000089B0DD1392B29D0B9F1000F01DD049B3133029A137074E73846B9E70122E2E7B2
:20322000B9F1000F06DB059941EA0909069959EA010120D1002AECDD594601222046019395
:2032400015F09CFC3146834618F0ACF80028019B02DCDED1DA07DCD5392BD8D1029A3923FD
:2032600013702B461D46013B15F8012C392A50D001321A7045E7002A03DD392BEED00133B5
:20328000C7E7019A079902F8013C8A422AD0594600230A22204615F0C7FAB84583464FF029
:2032A00000034FF00A024146204607D115F0BCFA80460746019B0133019375E715F0B4FABA
:2032C0003946804600230A22204615F0ADFA0746F0E7B9F1000F009ACCBF4D460125154434
:2032E0004FF00008594601222046019315F046FC3146834618F056F80028B2DC02D1019BC9
:20330000DB07AED42B461D4613F8012D302AFAD0F7E6009A9A42A5D10AF1010A312379E795
:20332000134BFFF7AFBA219B002B7FF486AA114BFFF7A8BAB9F1000F03DC059B022B3FF7F7
:20334000C9AE009D3146584617F016FE00F1300305F8013B009AAA1A9145BADD594600233F
:203360000A22204615F060FA8346EBE7CBD60100FCD7010042D601009FED010B704700BF24
:20338000000000000000F87F10B5054C237833B9044B13B10448AFF300800123237010BD14
:2033A000000B00200000000014D8010008B5034B1BB103490348AFF3008008BD00000000A0
:2033C000040B002014D80100A3F5803A704700BF174B002B08BF134B9D46FFF7F5FF002169
:2033E0008B460F461348144A121A17F001FC0E4B002B00D098470D4B002B00D09847002039
:20340000002104000D000D48002802D00C48AFF3008014F061F92000290005F083FF14F093
:2034200047F900BF00000800000000000000000000000420F80500204834002000000000A8
:20344000000000002DE9F04F0388044640F22910834287B00D460BD0B3F59E7F00F08180F7
:20346000002B5FD000230320238007B0BDE8F08FDFF87882734B744A7448CDF80080294671
:2034800004F032F901287ED9714E724A336872497248013333600BF02FFB71480BF03AFD2B
:2034A000704B1B78002B72D1DFF8A8B1DFF8A8A1644F0DF114095A46514668480BF01CFB39
:2034C0003168694801310BF017FB5F4A6748152105F05EF9002319460222384605F010FB65
:2034E0006349384605F0C2FE002348460593FEF7FBFA059B002BDED03221524805F092FECF
:2035000005990391084617F0ECFC039902464D4805F0FEFE4D4A40F229134FF00001918478
:203520002380A7E7534A544B126854495448484EDFF8B881CDE90032524B534AFEF7CCF9E9
:203540005249534804F0B8FB5249534804F0B4FB5249534804F0B0FB5249534804F0ACFB0F
:20356000A2E7524B1B783BB1514B1B788B4233D0504B1B788B421ED04FF49E7301202380A6
:2035800007B0BDE8F08F002007B0BDE8F08F314A314932480BF0B0FA47480BF0BBFC474B6E
:2035A000474A1B6800930023464833604FF4807106F092FAE0E7444B1B78002BDCD1434D19
:2035C000244A2B682449254801332B600BF094FA3F480BF09FFCCFE716461F491D4A1F4863
:2035E0000BF08AFA96F84B103A480BF085FA96F84B30052BC0D9354B164A174917480025D1
:203600001D600BF079FA34480BF084FC334B2D481D6006F0C3FA48B1284B314A1B680093A8
:2036200030480023802106F057FAA5E7254806F09BFA084A084909480BF05EFA2A480BF0CF
:2036400069FCE9E7A40B0020540C00201C0B0020880B0020B8B90100BCB90100C0B901008A
:2036600028BA0100BB2D0020D0B90100F8B9010010BA01002C2F0020302F00208C0B0020A7
:20368000680C0020A00B0020900B0020B0B9010080020020A0B901005C020020BCCF0100A0
:2036A000A4020020ACB9010038020020D72D002035340020363400205CBA0100282F0020BF
:2036C000F1360000680B0020BA2D0020980B002014BB0100A8BA0100D8BA0100500C002024
:2036E00091390000480B002004BB0100A53800002DE9F0475B4D2B7882B0002B48D15A4C3C
:20370000002323600F2006F0D3FF002006F03EFF564F574E94ED007AD6ED007A554D77EE30
:20372000C77A2A68FDEEE77A023217EE903A002BB8BF5B42B3F57A7F2A6013DA3B2A11DCBE
:203740003B78CBB14C4B019693ED000A4B4A464B4B494C480095B8EEC00A10F00DFD02B073
:20376000BDE8F087484B1B6A984700232B603B7822683260002BE5D14449454A09680091BA
:2037800044484FF4807106F0A7F902B0BDE8F087DFF80CA1404ADAF80030DFF8E090DFF8D7
:2037A000E080384F3D4E01932F4C92ED000A00944B46424639463046FEF70AF9DAF8000093
:2037C00094ED002AD9ED001A98ED001AD7ED000A96ED000A0BF0F6F92B78002B92D0D4ED89
:2037E000007AF5EEC07AF1EE10FA20D4224B1B68A3F57A7207EE102AB8EEC77AF4EEC77AA8
:20380000F1EE10FA26D408DB07EE103AB8EEC77AF4EEC77AF1EE10FA11D90F2006F048FF5A
:20382000124F022006F00AFF01233B7071E70F2006F03EFF042006F001FF0C4F69E70C208C
:2038400006F036FF002006F0CDFE022006F08CFF064F5EE70F2006F02BFF082006F0EEFEC6
:20386000024F56E7D72D0020B41D0020BA2D0020940B00209C0B00202C2F0020A00B0020D2
:20388000900B00208C0B00205C020020282F0020F1360000680B0020302F0020680C0020F4
:2038A000980B002000284BD038B50446D0F8A850294A2A492A480BF01FF9A27929482946A5
:2038C0000BF01AF9A379412B2FD1284603F0F4FD0546002837D0244903F0F6FD044668B1D0
:2038E00003F094FE50B1204603F088FE1F4B011E18BF01211E4819700BF0FEF81D4928462D
:2039000003F0E2FD044648B103F088FE30B1616919480BF0F1F8194B62691A60284603F01F
:2039200009FD174B01221A7038BD0C490A4A0C480BF0E2F8A1791348BDE838400BF0DCB88A
:2039400011480BF0E7BA11480BF0E4FA20468021BDE8384005F04CBCB8B90100BCB9010037
:20396000C0B9010048BB0100BCCF0100D72D0020C4BB0100ACB90100E0BB01002C2F00201C
:20398000BB2D002088BB010034BB0100B0BB010010B51E4C1E4A23681E491F480133052B2B
:2039A00082B0236012D00BF0A7F821681B48C1F105010BF0A1F81A4B1A4A1B6800931A485D
:2039C0000023802106F088F802B010BD0BF094F816480BF09FFA0F2006F030FE144B0024DF
:2039E000F2EE000AB1EE0C0A1C7007F0A9F90C4B10491B680093104A81ED000A0F482346AB
:203A00004FF4807106F068F802B010BD500C0020B8B90100BCB90100C0B9010000BC010002
:203A2000282F002091390000480B002018BC0100BA2D0020900B0020F1360000680B002081
:203A400000B585B00346002101AA44F20100CDE90111039300F004F805B05DF804FB00BF1E
:203A600072B6094B1B68DB0700D500BEBFF34F8F0649074BCA6802F4E0621343CB60BFF304
:203A80004F8F00BFFDE700BFF0ED00E000ED00E00400FA050378052B02D0094B1B681847A6
:203AA000084BD3F88424D3F8803413F0FF0FF4D1054BD2B2052A08BF1846014B1B68184795
:203AC0006C0C00200070024060BC0100014B02481B6818476C0C002064BC0100012803D052
:203AE000022809D020B17047054B06481B681847034B05481B681847014B04481B681847C4
:203B00006C0C002058BC010054BC01005CBC01002DE9F04F87B0002504460F4690469946C9
:203B2000029500E001356268012356682146002202A8B0470028F5D18DF80600049065B3DD
:203B4000824683460AE09DF806306668023B7668B0479DF806309B445D451ED9626801230E
:203B6000566821460DF1060204A8B04762680123566821460DF1070204A8B0479DF80730EE
:203B8000BB424FF00002214604A8DCD1D04508D00AF1010A5FFA8AFAD5E7052007B0BDE81A
:203BA000F08F109A9DF80630136089F8003089F801706168023B4D6809F102022146A847EC
:203BC000002007B0BDE8F08FF0B5054683B03B4809F08EFC044610B1204603B0F0BD384A6E
:203BE0003849394B14700C604822214637481C6016F0FEFF36482146482216F0F9FF002D87
:203C000054D095E80700334B83E80700002847D0002008F0BBF808B1852844D12E4D2B7A67
:203C2000002B49D0013BDBB205F10C024FF0030E6E68274FDFF894C01EFB032E05F109045F
:203C40006378EBB1A278611C1144013B51FA83F1224408E003F00F0307EBC30391421D60AB
:203C6000306858600CD012F8013B1806F2D503F00F030CEBC30391421D6030685860F2D1C8
:203C800003347445DCD10B238DF804301248336801A99847044600289ED009F06BFC9BE760
:203CA0000E4A1A60B4E7FFF7CBFEB7E7094B0B4A5D601D721A60ABE76E68E4E7953A0000C9
:203CC000BD2D0020080D00200C0D0020780C0020C00C00206C0C002090BC0100A540000012
:203CE00010B509F061FD68B109F066FD044648B9064808F05FF8034628B1FFF7A1FE23462B
:203D0000184610BD0823184610BD00BF50BC010009F03ABC0AF038BB4FF0804303E0D3F8CA
:203D20003824D10707D5D3F838249207F7D5024B02481B68184770476C0C002068BC0100FA
:203D400000B5054B83B082221B688DF8042001A8984703B05DF804FB6C0C00202DE9F043EB
:203D6000057A83B0002D5ED005F1FF3E5FFA8EF300F10C024FF0030E00F10901334FDFF886
:203D8000D4C01EFB032E0C4666780022964204EB020319D094F8028013F9089013F8083049
:203DA000B9F1000F0BDB03F00F0307EBC3031B680132002BEAD0112003B0BDE8F08303F01D
:203DC0000F030CEBC303F2E70334A645DCD100261E4FDFF880C0324602EB42020A44537800
:203DE000EBB1002423460CE003F00F0307EBC303186045682D685D6055780134E3B29D4204
:203E00000CD99578134413F905E05B5DBEF1000FEADA03F00F030CEBC303E9E7057A0136E6
:203E2000F2B29542D8D80A4A13681BB11A681368002BFBD1106043680B228DF804201B6854
:203E400001A9984703B0BDE8F08300BFC00C0020080D0020780C0020024B1878003818BF9E
:203E600001207047BC2D0020030710B5044604D52046BDE810400AF01FB909F037FE2046AE
:203E80000AF072F92046BDE810400AF015B900BF0AF058BB014B1868704700BF080D002057
:203EA000F0B40E4B1F688FB13E7A96B100231C463A4602E0DCB2A6420BD9557A854203F174
:203EC000010302F10302F5D101B10C703846F0BC70473B681F68002FE6D1F7E7080D0020EE
:203EE000436811461B68184700F00F03082B0AD802064CBF054A064A02EBC303186810B121
:203F000043681B6818471020704700BF780C0020C00C002038B5094B1C6864B1054602E0D7
:203F200023681C683CB1636829461B68204698470628F5D038BD062038BD00BF080D00208C
:203F400038B50D46044609F0A3FC18B1054B1B78022B01D0082038BD29462046BDE8384086
:203F600009F0A6BCBD2D002038B50D46044609F08FFC18B1054B1B78022B01D0082038BD07
:203F800029462046BDE8384009F024BDBD2D0020F8B543689B6805460C4616461BB198474C
:203FA000062800D0F8BDEEB92B7AA3421CD9093504EB44042C44677897B133463A469A4247
:203FC0000BD9A378A2190136D05CFFF74DFFF3B2BB4205D262789A42F3D800231B78FFDEF5
:203FE0000020F8BD0720F8BD7378FFDE70B54368DB6805460C4603B198472B7AA3421AD988
:20400000093504EB44042C4466789EB100252B46324693420BD2A37862190135D05C0AF0DC
:2040200091FAEBB29E4205D962789342F3D300231B78FFDE70BD00235B78FFDE43681B6963
:2040400003B118471846704770B50A4B1D687DB12E7A4EB100242146013400222846FFF71E
:2040600097FFE1B2B142F7D32B681D68002DEFD170BD00BF080D002070B5094B1D6875B110
:204080002E7A46B10024214601342846FFF7AEFFE1B2B142F8D32B681D68002DF0D170BD2C
:2040A000080D002070B503780446852B00F2BF80DFE813F00002B201BE003A026602E3003C
:2040C000EA00BD00040117012A01BD00BD00BD00BD003D01BD00BD00BD00BD00BD00BD0051
:2040E000BD00BD00BD00BD00BD00BD00BD00BD00BD00BD00BD00BD00BD00BD00BD00BD00F0
:20410000BD00BD00BD00BD00BD00BD00BD00BD00BD00BD00BD00BD00BD00BD00BD00BD00CF
:20412000BD00BD00BD00BD00BD00BD00BD00BD00BD00BD00BD00BD00BD00BD00BD00BD00AF
:20414000BD00BD00BD00BD00BD00BD00BD00BD00BD00BD00BD00BD00BD00BD00BD00BD008F
:20416000BD00BD00BD00BD00BD00BD00BD00BD00BD00BD00BD00BD00BD00BD00BD00BD006F
:20418000BD00BD00BD00BD00BD00BD00BD00BD00BD00BD00BD00BD00BD00BD00BD00BD004F
:2041A000BD00BD00BD00BD00BD00BD00BD00BD00BD00BD005101860060011C02E301E3007F
:2041C0008C4B8D49D3E9000290478C4B1C684CB1894D636820461B682946984723681C685E
:2041E000002CF6D1864C63680BB10D209847FFF743FF01F075FB834B1B68002B00F0FD81E4
:204200000120814D09F09EFA2A78931EDBB2062B00F215827D49CB5C13B107F09DFD2A78A0
:20422000022A40F00C8209F009FB01232B7070BD754D2A78931EDBB2062B00F2CD817349DC
:20424000CB5C13B107F088FD2A78022A40F0C48109F0F4FA6A4B5B6803222A700BB10220B8
:204260009847664B1D6845B16B6828461B68214698472B681D68002DF6D15E4B2146D3E951
:204280000002BDE87040104790F902308278002BB4BF5F4B574B02F00F0203EBC203D3E95F
:2042A0000002214690470028C1D0A0780207BED00307BCD4BDE8704009F0EABB504B5B686B
:2042C0000BB1082098474D4B1D68002DAFD06B6828461B68214698472B681D68002DF6D13C
:2042E000A5E7474B5B680BB109209847434B1D68002D9CD06B6828461B68214698472B68D0
:204300001D68002DF6D192E73D4B5B680BB10A2098473A4B1D68002D89D06B6828461B6847
:20432000214698472B681D68002DF6D17FE7344B5B680BB10F209847304B1D68002D3FF459
:2043400076AF6B6828461B68214698472B681D68002DF6D16BE72C4C2378062B00F04F81CC
:2043600003F0FD03052B7FF462AF09F071FA0223237070BD244DFFF77FFE09F0F9FF2A78D6
:20438000931EDBB2062B31D82049CB5C13B107F0E3FC2A78022A29D109F050FA174B1C688A
:2043A00000232B704CB11B4E636820461B683146984723681C68002CF6D10E4B1549D3E95A
:2043C000000290470E4B5B680BB10E2098472B78023BDBB2062B3FF62AAF0C4AD35C002BC3
:2043E0003FF425AFBDE8704007F0B6BC082AD5D1D2E700BFC00C00206CBC0100080D00205E
:204400006C0C00200C0D0020BD2D002048BC0100780C002070BC01009C4DFFF72DFE01F0F0
:2044200055FA2A78931EDBB2062B00F2D9809849CB5C002B00F0D480022A03D0082A01D058
:2044400009F006FA934B5B6802222A700BB101209847914B2146D3E9000290478F4B1D6811
:20446000002D3FF4E4AE6B6828461B68214698472B681D68002DF6D170BD844D2B78032B65
:2044800000F0C68009F0A2F900283FF4D0AE2A78931EDBB2062B40F2EB80814807F02EFCE1
:2044A0002A78022A01D0082A01D109F0C7F906232B7070BD754B1B78032B00F0A580082BE6
:2044C00000F0A280734B5B680BB100209847754B1D68002D3FF4ABAE6B6828461B68214665
:2044E00098472B685D68002DF6D170BD674D2B78032B7FF49CAE09F077FF00283FF497AE13
:204500002A78931EDBB2062B00F2BB806049CB5C13B107F021FC2A78022A40F0B28009F08C
:204520008DF904232B7070BD584D2A78082A5CD0931EDBB2062B00F286805549CB5C002B0A
:2045400000F08180022A00F0878005232B70514B5B680BB1032098474F4B2146D3E90002A8
:2045600090474E4B1D68002D3FF461AE6B6828461B68214698472B681D68002DF6D170BD94
:20458000444B5B680BB103209847434B4649D3E900029047414B1C684CB1434D636820468B
:2045A0001B682946984723681C68002CF6D1374D2B78062B1ED0082B0BD09A1ED2B2062A68
:2045C0004DD833498A5C002A49D0022B01D009F03FF902232B7070BD082A7FF43BAE37E64A
:2045E0002F4807F08BFB2A7826E702232B7009F039F9ACE707232B7070BD207A01E609F02E
:2046000027F90823237070BD2848FFF74BFD59E709F0EAFE00283FF435AF2A78931EDBB2A1
:20462000062B2BD81A49CB5C13B107F095FB2A78022A23D109F002F904232B7022E7082ABE
:204640007FF4F3ADEFE5164807F058FB2B78022B02D0082B7FF479AF09F0F0F875E71048C6
:2046600007F04CFB2B78022BB3D0082BB1D0AEE70749CB5C002B7FF414AF0EE7082ADBD1B5
:20468000D8E7082A7FF44DAF49E700BFBD2D002048BC01006C0C0020C00C0020080D002003
:2046A000180000200C0D002078BC010074BC01004360CA699A4205D38A6902600B67CB61A6
:2046C0000020704701F1280202608B6700207047F0B504680E7A002C00F07284A4F2123435
:2046E0007C2C00F2C1827C2C00F2BE82DFE814F074020003DE02CF02C7022A0307032303E8
:20470000BC02BC02BC02BC02BC02BC026702D702BC02BC02BC02BC02CC010F03E602BC0266
:20472000BC02BC02F401EE038C03BC02BC02BC02BC02FF00CB034803BC02BC02BC02BC0280
:20474000BC02BC026402BC02BC02BC02BC0219019B039303AC035703BC02BC02C30384035F
:20476000B40339035F03BC02BC024103DB015003ED00BC02BC023203DB00F503BD00BC0308
:20478000BC02BC02BC02BC02BC02BC02BC02BC02BC02BC02BC02BC02BC02BC02BC02BC0239
:2047A000BC02BC02BC02C900D303BC02BC02BC026703BC02BC02BC02BC02AC00BC02BC025C
:2047C000BC02BC02AC00BC02BC02BC02BC02BC02BC027D00C002BC02BC02BC02BC02B8004E
:2047E000BC02BC02BC02BC02B80001240025002A00F0CD8307795755A3424FF0000505718A
:2048000040F27C83171901343D70B04D0F7D2D682D78AF4200F0B0838F7DAF4209D1002582
:20482000A342057140F24D85254601340AB107795755DFF8A0C2A64F9CF800503F78013593
:20484000EDB28CF800507BE1012500240AB1077917554024AB42047140F289836C1CC6E75F
:2048600001240025002AE2D1E3E701240025002A40F031848D7D0571A34240F2628301343D
:20488000FFE001250024002A00F03D8307791755AB424FF00504047140F27E83274602EBF2
:2048A000050C6C1CFDE201250024002A40F011840624AB42047140F23F8301350C7D047193
:2048C000AB4240F291836C1CD4E701250024002A40F003840524AB42047140F228836C1C47
:2048E0002425A342057140F27583651CE0E701240025002A00F0FA83077957554FF0000C4A
:20490000A34280F804C040F29084651C0027AB4202F804C0077140F2F38354190135277083
:20492000F3E001250024002A00F0EF8307791755AB424FF02404047140F2C183274605F140
:20494000010C002463455755047140F2A98325460CF101071024BB4202F80C50047140F261
:204960009083254607F1010C01246345D555047140F2788325460CEB04070524BB4202F88E
:204980000C50047140F25D83254607F1010C24246345D555047140F24A8325460CF10107C6
:2049A0000124BB4202F80C50047140F23683254607EB040C03246345D555047140F2288367
:2049C0000CF1010702F80C40BB4291F816C080F804C040F218837C1C0425A34202F807C0C0
:2049E000057140F20B8302EB040C2F4601342425A3428CF80070057140F2FB822F46651C9D
:204A00001755AB424FF00204047140F29F82274602EB050C6C1C0225A3428CF800700571C7
:204A200040F2DD822F46651C1755AB424FF00504047140F27C82274602EB050C6C1C24256D
:204A4000A3428CF80070057140F2C4822F46651C1755AB424FF00604047140F26D825719F1
:204A600001353C700F7D0771AB4240F2BD826C1C5755A3428D7D057140F2638217190134DD
:204A80003D70124D2D6851E001270024002A00F04082057915559F424FF00004047180F02B
:204AA000F5827D1C39E101250024002A40F017830224AB42047140F249826C1C0225A34275
:204AC000057140F28C82651C04E700BF100D0020BE2D0020C02D002001240025002A00F03C
:204AE0009883077957559C424FF00205057180F05883671C1555BB424C7E047140F2E482C9
:204B000002EB070C7D1C8CF800400024AB42047140F221826C1C0AB107795755C64D91F8D2
:204B200014C02D682F78BC4500F01A82DFF810E3DFF810C36F788EF8007000258CF800508E
:204B4000BD423FD3BD4F3D780135EDB23D70AE4240F2CA810925A342057140F25583651C80
:204B6000002A00F0128307791755AB424FF00404047140F2B682274602EB050C6C1C8CF810
:204B800000700F7AAD4D2D78AF4240F2AC8305EB450501F10907DFF8A0C217F805E080F84A
:204BA00004E03D449C42CCF8005080F07E82671C002A7FF46EAFACE101240025ABE7012562
:204BC0000024CDE70725A342057140F29281651C002A7FF45BAE96E1002A00F0EB8204798F
:204BE0001470012B4FF00B04047140F2238302250127D455AB420F7D077140F25B8205F1FC
:204C0000010C022463455755047140F2448225460CF101070224BB4202F80C50047140F210
:204C20002B82254607F1010C02246345D555047140F213820CF1010702F80C40BB4291F852
:204C400019C080F804C040F2F7817C1C0025A34202F807C0057140F2E581171901343D7012
:204C6000764F00253D7072E7002303601846F0BD002A00F0F282057917460124C4E5002A52
:204C800000F0F28205794FF0010C0027CCE7002A00F0EC82057901274FF0000CBAE7002AC8
:204CA00000F0FF8207799446012468E7002A00F0D78207794FF0010C0025A2E75E4C002AF4
:204CC00000F0E68207792468944601258CF8007024780F7DA74200F0B9818F7DA7427FF4D9
:204CE00014AF0A249D42047180F0F5826C1C00E6002A00F0D28204790125002779E7002A58
:204D000000F0B08290F804C0012400279EE7002A00F0C182047901250027DFF81CC1D45550
:204D2000DCF80040AB426778077140F2A08102EB050C0135CAE7002A00F0B18205791746BB
:204D400001248CE7002A00F08482047901274FF0000C71E7002A00F0A78207799446012491
:204D60006DE6002A00F08E82047901274FF0000C28E6002A00F0A18207799446012436E6E0
:204D8000002A00F000821446077927700125BCE6002A00F08E820779944601243BE6002A4A
:204DA00000F07282057901274FF0000CE5E5002A00F0608290F804C0012400270CE61E4C64
:204DC0000125276800241AB190F804C002F804C03C780F7DA74200F0E9808F7DA7427FF43B
:204DE00038AD0224AB42047140F270822C460135002A7FF42CAD2CE5002A00F04782057992
:204E000001274FF0000CCBE5002A00F0BC8104799446012577E6002A00F0168205790127E6
:204E20004FF0000C96E5002A00F0458207794FF0010C002585E500BF100D0020BF2D002068
:204E4000BE2D0020C02D0020002A00F0308205794FF0010C002787E5002A00F00F820579E8
:204E60004FF0010C0027A5E5002A00F0F48105791746012404E6002A00F0218205794FF042
:204E8000010C002783E5002A00F0F68190F804C0012500243AE5002A00F0EA810779944651
:204EA00001248CF80070C14FC14D3F682D7897F801C0AC4540F2148297F802C03D44A342AF
:204EC00015F80C5005716CD9651C7CE7002A00F0D7810579012700240CE6002A00F0B6814B
:204EE000047917460125BCE540F2993303600120F0BD40F26D3303600120F0BD4FF46173C8
:204F000003600120F0BD0524AB42047144D96C1CC9E79F42027180F0B9807D1CA34C24686F
:204F2000AB426778077140F2A2800135D0E640F2553303600120F0BD40F2573303600120C2
:204F4000F0BD40F2593303600120F0BD40F2513303600120F0BD4FF44F7303600120F0BD98
:204F60000525A342057140F21781651CDBE440F2833303600120F0BD0D6AA3422D78057112
:204F80003FF652AC40F2893303600120F0BDA3420271B3D9013438E440F26E330360012033
:204FA000F0BD40F2723303600120F0BD0324AB4204713FF61BAF40F2773303600120F0BDA7
:204FC00008240471002B7FF407AE40F2123303600120F0BD40F2563303600120F0BD40F217
:204FE000523303600120F0BD4FF4567303600120F0BD4FF4547303600120F0BD40F24F33CF
:2050000003600120F0BD4FF4537303600120F0BD40F24B3303600120F0BD40F24A33036032
:205020000120F0BD40F2193303600120F0BD40F2493303600120F0BD4FF446730360012094
:20504000F0BD4FF4527303600120F0BD02249D42047180F0F4806C1C40E540F21733036080
:205060000120F0BD40F2453303600120F0BD4FF44A7303600120F0BD40F216330360012057
:20508000F0BD4FF4517303600120F0BD40F2273303600120F0BD40F2153303600120F0BDC3
:2050A00040F2433303600120F0BD40F2263303600120F0BD4FF4457303600120F0BD40F2FD
:2050C000423303600120F0BD40F22E3303600120F0BD0779BCE40779CAE40779A4E4077990
:2050E0008EE440F2213303600120F0BDA342027140F29B80013400259C420571C0F0938071
:2051000040F2353303600120F0BD2424AB420471D5D96C1C00259C420571C1D2013410256E
:205120009C420571ADD2013401259C42057199D22C4405259C42057183D2013424259C42E3
:205140000571BFF474AF013401259C420571BFF464AF2C4403259C420571BFF459AF0134B2
:205160008D7D05719C42BFF44EAF01340425A34205717FF643AF01342425A34205717FF6B3
:2051800038AF651C94E40125BFE40424AB420471A7D90F7A6C1CF5E440F241330360012048
:2051A000F0BD40F22D3303600120F0BD100D0020C02D00200B24012B04713BD902240D7DA1
:2051C00005719C42BFF476AF01340225A34205717FF661AF013402259C420571BFF44CAF09
:2051E00001340225A34205717FF637AF01344D7E05719C42BFF420AF013400259C42057119
:20520000BFF410AF01342BE54FF4487303600120F0BD02259C420571C3D201344D7E057122
:205220009C42BFF451AF651C6FE44FF44D7303600120F0BD40F2133303600120F0BD4FF4E9
:205240004B7303600120F0BD012468E70125FFF735BB0124CBE7012413E40124FFF7D5BA42
:205260000124B2E70124C8E70124BAE70124B2E7012418E6012479E701243CE7012469E7B3
:205280000124CBE701246BE7012452E701245BE7246801251CE5012540E601248FE701243C
:2052A000DEE4374601246DE40124FFF719BB01243AE7012402E401242CE701245CE7012434
:2052C0003CE740F28E3303600120F0BD4FF45F7303600120F0BD40F2333303600120F0BD78
:2052E00000231B78FFDE024A002313601B78FFDE100D002070B90B681A7B202A01D006201A
:2053000070471A4652F80E1F9961918892799A7799837047032070474360CA699A4210D38E
:205320008A6910B40260C8690C6FC01A1C441A44C86100380C6718BF01205DF8044B8A61B5
:20534000704701F12802026000208B67704700BF2DE9F0470B7888B00D4606460E2B14D8C4
:20536000DFE803F008180808130D281313181308080808000024204608B0BDE8F0874B7869
:20538000DA0930D15B09012B4CD00624204608B0BDE8F0870368002403F134022046C3E94E
:2053A0001E44C3E920445A671C845C62DC6208B0BDE8F087027A8B78002A00F06581817AD0
:2053C0000930002900F05E81F17A415C9942D1D01B061ED4EF7807F0FD03012BCAD0002FB2
:2053E00065D00324C7E713F0600FC3F3411200F09180012AC9D18B78212BC6D1B1F80720AC
:20540000072AC2D10168681C183100F073FA0446B1E7EC78002C00F09D80032C14BF03248D
:205420000024A8E78B780768202B00F09B80222BABD1B1F80730002BA7D1B1F8035097F81A
:2054400020303D8405F0010203F001039342154690D0C3691BB1C2F10301C9B29847002D86
:2054600088D1337A012B40F20B81737B06F10C04002B00F00381B37BE05C08F0DFFF337ABB
:20548000012B40F2FD80737B012B40F2F780B37B23442C46587808F0D1FF07F13403C7E9F0
:2054A0001E55C7E920557D62FD627B6763E73568012A05F10C0140F2DF80727B012A06F17F
:2054C0000C0340F2D7800691B27B704905911344AC6A93F80180002C60D1EA6FEB6AAC678A
:2054E000C5E91F42002B00F0B480296B1846002205F1240383E803004046EA6205A9FEF73A
:2055000033FD0446F369002B3FF435AF30460021984730E703F01F03012B7FF436AF8C7849
:20552000062C7FF432AF05A8039200F0D5FC03AA00920746EA78297930463B46FEF7E8FA84
:2055400005283FF418AF039A3946681C00F0D2F9044610E7F369002B3FF40CAF304601217B
:20556000984708E7B1F80720072A7FF40EAF3B73B1F80730DBB27B7300200E37CDE9057390
:20558000079000F08BFF002005A9FEF7D9FC0446002867D0002000F089FFECE6D5F884906E
:2055A000686A4C4528BF4C4605F1340A2246514615F0F6FAE86FEA6AEF67A9EB04030AEB56
:2055C00004010444C5E91D13C5F88040002A43D005F12C0797E8030005F12404002284E88F
:2055E0000300EA62002B3BD091461BE0696F686A15F0D6FAD5E91D32A96AC5F880100B4419
:20560000521AC5E91D32F36913B1002130469847EB6A13B397E8030084E80300AB6FC5F8A8
:205620002C90EBB1AA6A9342E0D2696F686A1A4615F0B6FAD5E90932A96FE967521A0B449C
:20564000C5E9093253B1404605A9FEF78DFC044658E700236B6255E700236B62002451E7AA
:205660006B6AEFE70A4B049603A9039300F020FC04468FE73B78FFDE7B78FFDE2B78FFDEA2
:205680006B78FFDE0B78FFDE5378FFDE19530000F552000010B503681C8CE40784B015D5AE
:2056A0000B46017A012916D9417B00F10C0481B1817B605C91060CBF0124002401A9CDE953
:2056C00001320394FEF73CFC04B010BD082004B010BD0B78FFDE00235B78FFDE0368D3F840
:2056E00080007047F0B50468238CDB0783B022D50546002016460F4600F0D0FEA26F42B9C1
:20570000636AE3B11124002000F0D0FE204603B0F0BD964228BF1646616F3246384615F069
:205720003FFAD4E91D239B1B3244C4E91D23C4F880600024E7E70824204603B0F0BDC4E9ED
:2057400009762A7A012A12D9697B012905F10C020FD9AB7B0849009113440C345878019412
:205760006946FEF701FC041E08BF9224CBE75B78FFDE1B78FFDE00BFB1460000002070478A
:205780002DE9F04F4B6885B0CDE900020C46002B71D008F079F9E568019B9D4228BF1D46DA
:2057A0008146002D7CD04FF0000A5646D3464FF00108D4E90113AB421F4628BF2F46E9B14A
:2057C0003A4609EB060015F0EBF9D4E90223D21BDB1BC4E90223C4F804B0ED1B3E442AB3F8
:2057E000002B08BF4FF00008002DE2D1009BC3F800905E60404605B0BDE8F08FABB12046CB
:205800003B4650F8101B4A68D2F804A009EB0602D047D4E90223D21BDB1BC4E90223ED1BC2
:205820003E445AB14FF0010ADAE7E368BAF1000F04D15BB99846002DBBD1D7E72268126889
:20584000126822604FF0010A002BF3D02168F1B1CDF808B003E0A36821680133A3604B680B
:2058600000225F6802A80123B8470028F3D12061002D9ED1BAE70B681B681B68002B88D1CB
:205880008B68002B85D1036043609846B2E76160002EABD0019BB34288BF4FF00008A5E702
:2058A0002E464FF00108A1E7054B0528187004D0044A137823F0020313700348FEF7F2BB6A
:2058C000C12D0020C22D0020A0BC010008B50020FEF7CAFABDE808408020FEF7C5BA00BFF8
:2058E00008B50020FEF7D4FABDE808408020FEF7CFBA00BF70B5C38893421E4628BF164652
:20590000934284B00D4612D8002400200394CDE9015600F0C3FD01A98020FEF711FB044614
:2059200088B1002000F0C2FD204604B070BD8020144607F09DFFB4FBF0F202FB1044B4FAFB
:2059400084F46409E1E708F079F980280BD1094A094B92E8030083E80300002000F0A6FD67
:20596000204604B070BD002000F0A0FD1024204604B070BDD8BC0100380D00202DE9F04F69
:205980000B780E2B89B018D8F3B1013B0D2B1BD8DFE803F01F0E281A354C1A1A1A1A0E6691
:2059A0006F07B24B1B78012B02D00120FFF77CFF0024204609B0BDE8F08F852B04D1AB4B6F
:2059C0001B78032B00F040810624204609B0BDE8F08FA64B1B78032BF6D00320FFF764FFF4
:2059E0000624E6E7A24806F00DF90028E0D0A14B01221A60BFF36F8FBFF34F8FD8E7052342
:205A00000DF115008DF8143008F080F89DF81530994E002203F01F043260032C00F2B98055
:205A2000DFE814F0E800B90099008D00C87803280D46C9D0904E3368002B00F00381002243
:205A4000716832609847044600287ED13368002B00F00581AB78002BAAD108F079F8A8E73E
:205A6000824B1B78002BA3D00020FFF71DFF00249FE74FF08043D3F8383413F0010F7B4B3A
:205A80001B7806D0022B93D00220FFF70DFF00248FE7012B89D18BE7BDF81B30002B00F03C
:205AA000D880092B28BF09239946FEF7F3F90546002800F0DB81BB464FF0090ACDF80CB0F4
:205AC0004FF0000801E008F101086A68012357682946002203A8B8470028F4D12A682B7A88
:205AE00015681C44C244E4B2002DE7D1634D644928464A4615F054F82C71A5F802A0FEF7CB
:205B0000ABF918B1EB7943F02003EB71FEF7C2F95C4BBDF81B2018600020C3E90159DA60E3
:205B200000F0BCFC58498020FEF71EFA0446002800F09F81002000F0B9FC062C05D105A873
:205B4000FEF7E8F90446002C73D008F06DF8204609B0BDE8F08F9DF81900020707D005A9DA
:205B6000FEF7C2F906280446EDD19DF8153013F0600F0ED19DF816303C4A9DF8194012783B
:205B8000012B00F0B980032B00F0A680002B00F0C6800624D9E79DF8190003A9FEF780F959
:205BA0000546002859D09DF80C1005AAFEF798F906280446C7D19DF8152012F0600FC4D183
:205BC0002A4B9DF80C101B78D20940F014819DF816200B2AB9D1052B40F0B280BDF8173054
:205BE000FF2B00F2FC809DF817202846FEF7D0F90446A8E713F0600FC3F341179FD1DB0968
:205C000048D19DF81630032B00F09C80092B00F0A880012B93D1BDF81730012B8FD1FEF7FD
:205C20001BF9002800F0D980184A137823F00203137033686BB108F001F8044600287FF4CA
:205C4000B7AE0AE70E2480E70420FFF72DFE0624AFE607F0DFFF0024ABE6102475E70C4BE0
:205C60001B68082B33D007F0D5FFA2E6C12D0020400D00205C700240380D0020440D0020B9
:205C8000A4BC0100200D0020E0BC0100C22D0020300100109DF81620062A00F08780082A45
:205CA00073D0002A7FF44BAF7B497C4B09781A80890744BF02221A7078490DF1150002222B
:205CC000FFF718FE0446062C7FF43DAF37E7744B1B68002BC7D16BE625073FF55AAFBDF84B
:205CE0001730002B7FF455AF052A01D0200727D1204607F0CDFE9CE721073FF54AAFBDF8E7
:205D00001730002B7FF445AF052A01D0230717D1204607F0EBFE204608F026FA89E7052A35
:205D200001D027070CD1204607F0BEFE5B49034602220DF115000B80FFF7DCFD044602E7BD
:205D4000082402E7BDF81730012B7FF4F8AEFEF783F8002841D0504A137843F00203137064
:205D600067E7504C2378043B012BE9D89DF81730BBB3012B33D1FEF767F92378052B3FF4A5
:205D800058AF0520FFF790FD53E7464A1278052A47D0042A7FF4D3AE404B1F703F490DF1F8
:205DA00015000122FFF7A6FD04468CE79DF81830022B3FF471AE032B36D0012B7FF4BFAEB9
:205DC000BDF81B30002B3FF444AF37490DF115001222FFF78FFD044675E70F24B5E607248A
:205DE000B3E6FEF749F92378042B3FF422AF0420FFF75AFD1DE79DF816705FB30A2F7FF4B7
:205E0000A4AE052B9CD128460192FEF717F92349019A03460B700DF11500FFF76BFD044607
:205E200091E61E4A1370B9E7BDF81B30002B3FF410AFBDF819109DF8170000F01DFB01466A
:205E400000283FF47CAE0A780DF11500FFF752FD044638E7052B7FF473AF10490DF1150049
:205E600002220F80FFF746FD04466CE64FF0090A3CE607F0E3FE802808D10C4B93E80300F8
:205E800086E80300204600F011FBD2E6204600F00DFB102459E600BFC22D0020440D002067
:205EA00034010010C12D0020C4BC0100D8BC010038B505460C4607F0C1FEA84207D194E8FB
:205EC0000300044A82E803000023184638BD1023184638BD380D002008B1402303600148DB
:205EE000704700BF440D0020F0B40D7A0DB101F109050468002C59D06FF4AB763444142CD5
:205F000000F24A81142C00F24781DFE814F05400E700EE00F500FC000301090110011701AE
:205F2000450145011E0125012C0145013B0033012700390115003F0101250024002A40F054
:205F4000DB818A8AAB424FEA1222027140F2338140F26D1303600120F0BC7047012500243B
:205F6000002A40F0CD814A8AAB424FEA1222027140F226816C1C8A8A0271A34240F27B81DD
:205F8000651CDEE701250024002A40F0B7810A8AAB424FEA1222027140F217816C1C4A8A58
:205FA0000271A34240F26C81651CDCE709240471002B00F0F680002A00F0A48104791470B3
:205FC000012B4FF00404047140F2F0800227012694559F422D78057180F089817E1C0024CA
:205FE000B342D555047140F27D812546771C0024BB429555047140F2708125467E1CFF2414
:20600000B342D555047140F263812546771C0124BB429555047140F2568125463E19012467
:20602000B342D555047140F249812546371900249F429555047180F03C8125467E1C092452
:206040009E42D555047180F02F812546771C21249F429555047180F0228126467C1C0925D9
:206060009C42D655057180F015811619013435700E7C0671A34240F20881651C16550E8A6D
:206080009D424FEA1626067180F09F8057196C1C3E708E7C06719C4280F0F280651C1655D3
:2060A0004E8A9D424FEA1626067180F0898057196C1C3E700E7D0671A34240F2DC80651C28
:2060C0001655898A9D424FEA1121017173D22A44117040F26D13036001203DE7002A00F0DE
:2060E000B38004790127002672E7002A00F0A58005790126002772E7002A00F09780057936
:206100000127002673E7002A00F0898005790126002774E7002A5DD005790127002676E70D
:20612000002A00F09E8005790126002777E7002A00F0958005790127002678E7002A00F089
:206140008C8005790126002779E7002A00F083800579012700267AE7002A00F08A8006791A
:20616000012400277BE7002A00F081800579164601247CE7002A78D006791746012487E713
:20618000002A70D006791746012492E7002A3FF4DFAE017911709CE7002303601846F0BC23
:2061A000704740F2571303600120F8E74FF4AC7303600120F3E740F26B1303600120EEE760
:2061C00040F2691303600120E9E740F2671303600120E4E701240122A342027173D914447E
:2061E0000122A342027169D9144400229C4202715FD2013409229C42027155D20134212296
:206200009C4202714BD2013409229C42027141D201340A8A0271A34237D9651CB7E60124D8
:20622000FF229C42027153D20134D4E701240022A342027151D90134F2E701240022A342D4
:2062400002714FD90134F2E701242A780271A3424DD90134F2E70124D1E70124CAE701246A
:20626000C3E70124BCE7012485E6012497E60124CFE70124C8E74FF4B573036001208EE767
:206280004FF4B4730360012089E74FF4B3730360012084E74FF4B273036001207FE740F2C4
:2062A0006313036001207AE74FF4B1730360012075E740F25F130360012070E74FF4AF7358
:2062C000036001206BE740F25D130360012066E74FF4AE730360012061E740F25B13036042
:2062E00001205CE74FF4AD730360012057E740F259130360012052E70679E1E60679BDE652
:206300000679CCE60422012B02717FF64FAF02249BE700BF0B780E2B0BD8DFE803F0080844
:2063200008080A0C080A0A0A0A08080808000020704706207047F0B54B78DA0985B00C4661
:20634000064611D15B09012B02D0062005B0F0BD8C78002CF9D102681373036A002B3AD099
:20636000214698472046F1E713F0600FC3F3411215D0012AE9D18B78072B07D0082BE4D160
:20638000F268481CB169FFF7B5FADFE7B1F80720182ADAD1C169601CFFF7ACFAD6E703F00B
:2063A0001F03012BD1D18D78062DCED103A80292FFF792FD02AA00920746E278217930465D
:2063C0003B46FDF7A5FB0528BFD0029A3946601CFFF790FABAE71846B8E700BF70B54FF014
:2063E000805286B0D2F8A830D2F8A42000926FEA83436FEA93430B4A0B4E9BB202A80D21B2
:206400000DF0DEFE02AD002404E015F8013B06F8013B013402A814F064FD8442F5D306B0E1
:2064200070BD00BFFCBC0100E82D002038B5114B53F8204023780BB9A01C38BD0020FFF768
:206440004BFD217891B12246C4F101055319DCB2234620F8141012F8011F0029F6D1013309
:206460005B00DBB243F44073038038BD40F20233FAE700BF64BD010040B1052808D8054A5C
:20648000105C28B1044B53F820300BB1FFF7CEBF002070477CBD010064BD010072B6024AE7
:2064A0001368013313607047840D0020034A1368013B136003B962B6704700BF840D0020E0
:2064C00010B50446006830B1002108F061FC54F8040F0028F8D110BD2DE9F043038883B0CA
:2064E000044643B1B3F5867F0CD1822910D0012003B0BDE8F0834FF486730120238003B0AA
:20650000BDE8F08300230380032003B0BDE8F08304F034F8BFF35F8F19491A4B0E680022B0
:206520000A601F781A70FFB2BFF35F8F164D04F029F828680028DED0DFF85090DFF8508043
:2065400003E055F8040F0028D5D090F84A3026FA03F3DA07F5D590F8493047FA03F3DB074E
:20656000EFD503F01BFB0028EBD02B68D9F80020009218464246022103F0AEFAE1E700BF2A
:20658000980D0020C32D002070000020282F00203166000010B50C4A90F84B30126882B0BE
:2065A00001330092044680F84B30084A03468021203003F091FA064B19782246002002B0B2
:2065C000BDE8104008F068BC282F0020956500003534002010B4094A094C136819431160FC
:2065E00021780346012202FA03F30B43DBB2237004485DF8044B08F07DBC00BF980D002091
:20660000C32D00207800002010B5044690F84A1090F8490003F074FF10B994F8480010BD40
:2066200001280ABF94F84800002080F0010010BD70B582B0044603F0B1FA08B902B070BD57
:2066400004F12006304603F0A9FA05462046FFF7DBFF01280FD00028F0D1002DEED130463F
:2066600003F082FA0D4B22462846197802B0BDE8704008F011BC002DE0D0094B094A1B6819
:20668000009300253046234684F84B507E2103F023FA054B28462246E7E700BF3434002062
:2066A000282F00209565000036340020F8B508F067FB304B304C187008F062FB2F4B304F0B
:2066C000187008F05DFB2F4922682F4B08700025FF2139727B60FD60002A42D02B4E09E028
:2066E00091F84A00F9683A72834054F8042F0B43FB60B2B392F84A3092F84910526C03F0D2
:206700001F0343EA41131F2BC6BF03F01F0331464FF0A04103F5E07342F08C0241F82350A4
:20672000236893F84A1093F8490003F0A7FE226892F84A3092F8490003F01F0343EA40108A
:20674000012105F0D1FC2168387A91F8492082424FF00103C4D0FF28C2D054F8042F002A2B
:20676000C8D10B48002108F013FBBDE8F840044803F0DABE363400207000002034340020B0
:20678000880D002035340020D5650000000300507800002070B4421EC11C002012F8013FCB
:2067A000A3F13004E5B2092DA3F1410604D8204491420AD00001F1E7052EA3F16104A3F1E3
:2067C000370504D891422844F4D170BC7047052C02D8573B1844EBE70020F6E7D8B10268FF
:2067E000D2B110B4D0E90143A3420CD2591E0A4403E001339C42836008D012F8011F2029AA
:20680000F7D99C4202D05DF8044B7047013C84605DF8044B704770471046704750B138B56F
:206820000446006828B1A568284414F05AFB2844A06038BD704700BF70B5044600B3066894
:20684000CEB14368CBB900291ADBA268013111448B4218D223699BB9B1F1804F16D2236A5E
:206860004D00D3B1304629469847064618B3A368C4E900651E44304670BD82689342E2D8D1
:206880000026304670BD1644304670BD0029F7DB236A6FF00045002BE4D1A36928469847CD
:2068A000064640B1A2682168013214F079F9E36920689847DBE7E36920689847C4E9006624
:2068C000D9E700BFF8B5002838D00E46002937D084682ABB14B3DFF86CC0226ADAB1B24232
:2068E0001CD0013A771E00E0C0B117F8010F1CF8003003F00303012B12F8013F1CF8035052
:2069000005F003050CBF00F120010146012D08BF20339942E8D02468002CDED12046F8BDF9
:20692000002CFBD0216A304629B114F0C8FA0028F4D02468F4E70C462046F8BD0446EDE7E1
:206940000C46EBE741D401002DE9F04F16689368F45C9046222C03F10102814683B006EBD9
:20696000020506EB03001AD1D8F80470BA4216D28A462C46002203E00134A31BBB420ED2F2
:206980002378222B15D05C2BF6D10134A31BBB4205D20134A31BBB4202F10102F0D325B196
:2069A000D8F80000281AC8F80800002003B0BDE8F08F231AC2F101001844D8F810309847CA
:2069C00007460028EBD0A54280F09980DFF890B13A4605E002F8013B0135A54280F09080C7
:2069E0002B785C2BF6D1611B00291ADD6E78752E17D85B2E38D9A6F15C03192B11D8DFE80E
:206A000003F03710101010102D1010102710101010101010211010101B10150D05290192A9
:206A20002BDCD8F8143038469847B9E7092302F8013B02231D44D0E70D2302F8013B022314
:206A40001D44CAE70A2302F8013B02231D44C4E70C2302F8013B02231D44BEE7082302F8DB
:206A6000013B02231D44B8E7222E01D02F2ED8D1022302F8016B1D44AFE7A81CFFF78AFECA
:206A8000A0F55C43B3F5806F0646CAD3A0F55843B3F5806F019A42D2AB1DE31A052BC0DD3A
:206AA000AB795C2BBDD1EB79752BBAD105F10800FFF770FEA0F55C43B3F5806FB1D20BEA69
:206AC0008626C0F309003043019A00F580360C234FF0040E4FF0F00C0320104406F03F012D
:206AE00061F07F0100F8011990424FEA9616F5D14CEA0606F6B216701D4472446DE73A46DB
:206B0000102300211170C9F80030CAF80070D8F80030E31A0133C8F80830012046E77F285F
:206B200004D8C6B206234FF0010EE4E7B0F5006F06D206234FF0020E4FF0C00C0120CCE77C
:206B4000B0F5803F06D206234FF0030E4FF0E00C0220C2E7B0F5881FBFF463AF0623B7E7B2
:206B600000FC0F0083683BB15B681BB119604B6083685960012070478160C1E90031012027
:206B8000704700BF10B5034628209847044618B12822002114F02CF8204610BD002900F058
:206BA000BD802DE9F04706460846002E00F090803478002C00F098805B4D32464FF000093B
:206BC00001270FE0A4F10803DBB2072C07FA03F301D92B420AD11F2C98BF09F1050912F871
:206BE000014F4CB1222CEDD95C2CF8D112F8014F09F10109002CF5D1971B07EB0905E91CDC
:206C0000FFF71AFE804600285BD0B9F1000F00F087800446222304F8013B3378A3B3DFF8FE
:206C200010A15C274FF0740909E0222B09D05C2B07D02370204616F8013F441C23B31F2B30
:206C4000F3D8204600F8017B3278222A3CD8072A32D9A2F108031A2B2ED8DFE803F02A2755
:206C6000242D211E2D2D2D2D2D2D2D2D2D2D2D2D2D2D2D2D2D2D2D2D0E002223637016F8CC
:206C8000013F441C002BDAD108EB0504222200236270A3700120BDE8F08772236370CAE7E0
:206CA00066236370C7E76E236370C4E784F80190C1E762236370BEE751460DF0A9FA601D55
:206CC000B9E70020BDE8F0875C2AF5D16270B2E70321FFF7B1FD0028F3D0144B1A889B785A
:206CE000028083700120EDE70321FFF7A5FD80460028E6D0254602274FF001094046222421
:206D000000F8014B2A46314613F04AFF002308F8094008F807300120BDE8F0870020704745
:206D200007F101090237E9E737000004B0BD0100B4BD01002DE9F04D047B202C8EB080460B
:206D40008A4625DC74B3631E1F2B2AD8DFE813F077008400290095002900290029009E00D2
:206D60002900290029002900290029002900EF0029002900290029002900290029002900BD
:206D800029002900290029002900290029002E00402C00F0F880802C03D10069002840F091
:206DA000CE80002420460EB0BDE8F08D0029F8D001215046D8F80840FFF73EFD0028F0D041
:206DC0005B230370DAE9022301320133CAE90223002C00F0C6802C26202700250AE0013060
:206DE0000570DAF808304344CAF808302468002C00F0B78051462046FFF79CFF0346504647
:206E0000002BCED0FFF70AFD23685046002B00F0A880DAF81430002B15BF032102214FF0AD
:206E200002084FF00108FFF707FD0028B9D00670DAF81430002BD2D047700230D0E708460E
:206E40000621FFF7F9FC03460028AAD0BB4A1068928818609A80A5E708460521FFF7ECFC2E
:206E6000034600289DD0B64A106812791860012420461A710EB0BDE8F08D08460521FFF759
:206E8000DBFC034600288CD0AE4AEDE7002300200021CDE90401CDE90733CDE90A33D8E9BF
:206EA000064509930C93ADF83430BAF1000F3FF478AF22462B462046294613F003FCB0B916
:206EC00025F00047A04B204639464FF0FF32264613F0F8FB002840F0F7809B4B4FF0FF328F
:206EE0002046394613F0D0FB002840F0ED80954B93E80300042407908DF82010611C504635
:206F0000FFF79AFC00283FF44CAF0DF11C0B02191BF8013B037001309042F9D1002303702A
:206F2000DAF808301C44CAF8084001243AE70069FFF734FE044620460EB0BDE8F08D13F073
:206F4000D0FF421C114650460092FFF775FC00283FF427AF009AD8F8101013F021FE01241C
:206F600020E702215046FFF767FC00283FF419AF5D22002302704370DAF80C30013BCAF802
:206F80000C3001240EE700293FF40BAF4B698468002B14BF03210221504614BF02250125EA
:206FA000FFF74AFC00283FF4FCAE7B230370DAF80C20DAF814300132CAF80C20002B40F0EF
:206FC0009680DAF808201544CAF80850002C00F00F8109253A262C27002B40F09580206AA7
:206FE0005146FFF7DBFD00283FF4DBAE5046FFF715FCDAF81430002B14BF4FF002084FF00F
:20700000010841465046FFF717FC00283FF4C9AE0670DAF8143003B14570DAF808304344E9
:20702000CAF8083051462046FFF784FE00283FF4B8AE5046FFF7F2FB2368DAF81420003BDB
:2070400018BF0123002A0CBF984603F1010808F101015046FFF7F0FB00283FF4A2AE2368BD
:207060000BB100F8017BDAF8143013B10A2300F8013B00230370DAF808304344CAF8083084
:207080002468DAF81430002CA6D1002B00F0B080DAF80C1001315046FFF7CEFB00283FF490
:2070A00080AEDAF814306BB1DAF80C30012B09D00022092100F8011BDAF80C300132013B80
:2070C0009A42F7D37D2254E7D8F81480404612F0F5FF02460B462046294613F0C1FAB8B3B9
:2070E0001A49424607A80DF093F8044606E70A234370DAF80820DAF814301544CAF80850D4
:20710000002C7FF466AFC0E7DAF80C105046FFF793FB00283FF445AEDAF80C203AB10023B2
:2071200000F8015BDAF80C2001339342F8D3DAF808301A44CAF8082051E700BFC4BD01005E
:20714000CCBD0100BCBD0100FFFFEF7FD4BD01000DF11C0B274922462B4658460DF058F8D4
:207160002549804604AA584610F076FF012829D19DED047B8DED027BDDE9021222F00043C8
:2071800000910193DDE900233046394613F072FA08B9CDE9006722462B46DDE9020112F0FB
:2071A0003FFE0B46064623F000470022134BDDE9000112F0EDFF02460B463046394613F0D5
:2071C00063FA30B90E4922462B4658460DF020F880464446192C3FF6E4AD611C5046FFF722
:2071E0002BFB00283FF4DDAD002C3FF497AE8EE6022150E7D8BD0100E0BD01000000B03CF2
:20720000E4BD0100F0B5274C8BB00E4624220021054601A813F0ECFC23684FF48070984742
:20722000034694E8070006960AAF4FF4807607E9070001930296CBB1ADB101A92846FFF7E9
:2072400079FD70B1019E56B3039D701913F049FE28440390A7686FB1411C3046B847054631
:2072600028B9019B13B1626818469047002528460BB0F0BD23680130984705460028F0D005
:20728000DDE9022301339A4228BF1A46019913F087FC039BEF54019863689847E7E70398FF
:2072A000D8E700BF8800002030B5044683B080B113F017FE084B421C1B6801921046984701
:2072C000054618B1019A214613F06AFC284603B030BD0546FAE700BF8800002030B3F8B5FE
:2072E0000F46B9B11446AAB19042054612D09BB1D36843F400769B0504D4206A10B10C4BCD
:207300005B6898472762E66021462846BDE8F840FFF728BC0020F8BD0846FFF7C5FF074646
:207320000028F7D0E36823F40076E4E7002070478800002058B32DE9F041154F05464FF0FC
:2073400000082C462D68E268D10516460ED4A06828B1FFF7EFFFE268D305164606D420691A
:2073600098B17B689847E668C4F8108016F4007604D1206A10B17B68984726627B68204635
:207380009847002DDDD1BDE8F0811646EEE77047880000202DE9F0433D4E002789B0CDE9A3
:2073A0000377C6E90077054650B10C46904661B9B8F1000F02D02B19C8F80030C6E90054DE
:2073C0000024204609B0BDE8F0839946314B019093E8070008AB029403E90700FFF7D2FBE5
:2073E0000446002833D0019888B1039B002B47D1029B042B35D90378EF2B32D14378BB2B52
:207400002FD18378BF2B2CD10323039301A8FFF7E5F901462046F9F743FFA8B1B9F1000F60
:207420000BD1B8F1000FCCD0019B039A20461344C8F8003009B0BDE8F08301A8FFF7CEF9FF
:20744000DDE90223934216D32046FFF773FFDDE902349C42ACD3ABB15C1EB8F1000FAAD153
:20746000ACE701A8FFF7BAF901462046F9F718FF0028D3D1E8E7019AD35C002BD1D0E3E778
:207480003846C4E71C46B8F1000F94D196E700BF9C0D00208800002068B170B50D461646AA
:2074A000044613F01EFD33462A46411C2046BDE87040FFF76FBF704700221146FFF7ECBF6E
:2074C0000021FFF79FBE00BF0022FFF7FBB900BF21B118B1884201D0FFF744BB00207047EC
:2074E0000023FFF7FBBE00BF70B5104B82B00546186801911646FFF745FB0199044620B1A5
:20750000002E14BF02230123C360284600232246FFF7E4FE054610B1204602B070BD204676
:20752000FFF708FF2C46204602B070BD8800002030B583B005460191FAF76EF804460199BF
:20754000284622460023FFF7C9FE10B1204603B030BD05462046FFF7EDFE2C46204603B091
:2075600030BD00BF38B50B4A05461068FFF70AFB044638B110232846E360FFF795FE054674
:20758000206108B1204638BD2046FFF7D3FE2C46F8E700BF8800002030B583B005461046B8
:2075A0000191FFF7DFFF04460199284622460023FFF794FE10B1204603B030BD0546204688
:2075C000FFF7B8FE2C46204603B030BD08B5044B1868FFF7D7FA08B12023C36008BD00BF91
:2075E0008800002008B5044B1868FFF7CBFA08B14023C36008BD00BF8800002028B1007BDD
:20760000A0F10200B0FA80F04009704720B1C06810F0030018BF0120704700BF28B1007BFF
:20762000A0F10800B0FA80F04009704730B5174B83B000221A6004F017FB00BB002004F0AC
:207640002FFB134B134A93E80300FF250090ADF80410062400231048ADF8005069468DF88C
:2076600002408DF8043004F0B5FF58B901210A4805F004F8084804F0F5FF03B030BDFCF726
:20768000DFF9DBE7FCF7DCF9F0E700BFA40D0020ECBD0100C9760000F4BD0100014B1868BA
:2076A000704700BFA40D002008B5064A13680133136002F07FFB00B908BDBDE8084002F08B
:2076C0005FBB00BFA40D0020042800D07047FFF7EBBF00BF014B1868C0097047A40D0020D1
:2076E0004160806A07F006BCF0B5858C83B0044617461E464DB36A2D22D182294AD1456855
:20770000002D62D00023009304F1180204F11401284601F0C7FDD4E90431227E101E18BF81
:207720000120994284F8200046D0637E0133DBB26376002A3AD0032B0ED9042384F82030E4
:207740000023A384032003B0F0BD244B4560C0E904551B680583836201F0CAF93946308172
:2077600000F00EFF2060F0B11D4BC36323681C64216991B921683046463101F0CFF92368C4
:20778000A3F84400206800F015FF6A230120A38403B0F0BD012003B0F0BD6E23002230469F
:2077A00001F098FDE6E7A0840220CCE7032BC4D8022384F82030C3E7089B60689847216944
:2077C000227E637E01312161B3E7032380F820302846089B9847A5840220B4E7282F00209F
:2077E000E176000010B5846882B01CB194F90830002B01DB02B010BD236A002BFAD01A6833
:20780000002AF7D00749097831B11B6A23B101909847236A01981A68002302B0BDE8104089
:2078200000F03CBEC42D00202DE9F047124C82B02468DDF828A08CB106460F4691469846B4
:20784000656843464A463946304625B1CDF800A0A847054638B92468002CF1D100252846DA
:2078600002B0BDE8F087B379012BF8D13A463146002000F023FCF2E7A80D00202DE9F04FF0
:207880002DED028BB34CB44E8BB0054620460295884601F0BDFAC4F8A0500346307008BBEF
:2078A000A279013A032A62D9636823F07F4323F0FF03002B4FD06379032B00F028812089BF
:2078C00000F0E0FE074600284DD0D0E90F9700F0D5FEB9F1000F00F091809E493846C847F8
:2078E000337843B30027C22B2BD0DFF88892384600F0C4FE3278C32A69D0BF2A84BFA022F9
:20790000327002212389934801F0FAF8D9F800100391084613F0E5FA039902468D4801F0E9
